:040000008EEF00F08F
:0600080052825BEF18F0CC
:100018005280D8CFA3F0E8CFA4F0E0CFA5F0E1CF8D
:10002800A6F0E2CFA7F0D9CFA8F0DACFA9F0F3CFA6
:10003800AAF0F4CFABF0F6CFACF0F7CFADF0F8CF35
:10004800AEF0F5CFAFF0F2A42CEF00F02EEF00F0F9
:1000580072EF00F01F0E466434EF00F036EF00F048
:1000680072EF00F060A23BEF00F03DEF00F03FEFD1
:1000780000F072EF00F001010651D8A446EF00F03D
:1000880048EF00F062EF00F0070E0001916F010EDB
:10009800926FAE0E936F080E946F000E966F160E49
:1000A800956F000E986F300E976F6CEC1AF0070E74
:1000B8000001606F010E616FD0EC18F0FAEC07F0E8
:1000C8008BA069EF00F06CEF00F08B806DEF00F013
:1000D8008B90E50ED66E480ED76EF294AFC0F5FF42
:1000E800AEC0F8FFADC0F7FFACC0F6FFABC0F4FF81
:1000F800AAC0F3FFA9C0DAFFA8C0D9FFA7C0E2FFD2
:10010800A6C0E1FFA5C0E0FFA4C0E8FFA3C0D8FFD8
:08011800529010000DEF1CF0E5
:1008000000AA084C088008090809024300020100F8
:10081000C032090400000102020100052400100199
:100820000424020205240600010524010001070535
:1008300081030A000209040100020A000000070502
:1008400002024000000705820240000034034D0010
:100850006900630072006F00630068006900700047
:10086000200054006500630068006E006F006C009B
:100870006F0067007900200049006E0063002E00C1
:10088000180350004900430031003800460034008E
:1008900035004B0035003000120100020200000854
:1008A000D8040A00000101020001040309047425B0
:0908B0006320682563200A0000A2
:1008BA0004013205D8A464EF04F066EF04F082EF75
:1008CA0004F030511F0B0009D8A46EEF04F070EF4A
:1008DA0004F082EF04F00001C58F030E0401311900
:1008EA00D8A47AEF04F07CEF04F080EF04F0010E54
:1008FA00436E82EF04F0000E436E3251D8A488EFA3
:10090A0004F08AEF04F00AEF06F030511F0B020AD6
:10091A00D8A492EF04F094EF04F00AEF06F03451F1
:10092A000F0B0009D8B49CEF04F09EEF04F00AEF15
:10093A0006F034510F0B156E030E1560A7EF04F085
:10094A00A9EF04F00AEF06F0200E4618D8A4B0EF7B
:10095A0004F0B2EF04F00AEF06F00001C58F0401BB
:10096A0034BFBAEF04F0BCEF04F0D9EF04F034510D
:10097A000F0B156E1550020DCE0EF324D96E000E14
:10098A00F420DA6EDECF1AF0DDCF1BF034510F0BF4
:10099A00156E166ADA0E1524D96E000E1620DA6E56
:1009AA00DF50196EF4EF04F034510F0B156E155029
:1009BA00020DC80EF324D96E000EF420DA6EDECFD3
:1009CA001AF0DDCF1BF034510F0B156E166ADD0ECF
:1009DA001524D96E000E1620DA6EDF50196E19B082
:1009EA00F9EF04F0FBEF04F003EF05F0FB0E1A1425
:1009FA001A6EFF0E1B141B6E08EF05F0040E1A1078
:100A0A001A6E1B501B6E34BF0DEF05F00FEF05F089
:100A1A0020EF05F034510F0B156E1550020DCE0E56
:100A2A00F324D96E000EF420DA6E1AC0DEFF1BC062
:100A3A00DDFF2FEF05F034510F0B156E1550020D27
:100A4A00C80EF324D96E000EF420DA6E1AC0DEFF47
:100A5A001BC0DDFF030E3119D8A436EF05F038EFBD
:100A6A0005F072EF05F01AC0D9FF1BC0DAFFDFAE3E
:100A7A0041EF05F043EF05F064EF05F034BF48EFAE
:100A8A0005F04AEF05F058EF05F034510F0B156EDB
:100A9A00166ADA0E1524D96E000E1620DA6E0001D7
:100AAA00DF8264EF05F034510F0B156E166ADD0E06
:100ABA001524D96E000E1620DA6E0001DF821AC0E4
:100ACA00D9FF1BC0DAFF000EDB841AC0D9FF1BC096
:100ADA00DAFF000EDB8E0AEF06F0040E1A181A6E01
:100AEA001B501B6E1AC0D9FF1BC0DAFFDFAE80EFA6
:100AFA0005F082EF05F09EEF05F01AC0D9FF1BC082
:100B0A00DAFF7F0EDF161AC0D9FF1BC0DAFF000E0C
:100B1A00DB8C000E0E6E050E0D6E1AC00FF01BC098
:100B2A0010F0000E126E020E116E17EC18F0A4EF00
:100B3A0005F01AC0D9FF1BC0DAFF000EDB8C040EC9
:100B4A001A181A6E1B501B6E19B2AEEF05F0B0EFF1
:100B5A0005F0BBEF05F01AC0D9FF1BC0DAFFDFAE04
:100B6A00B9EF05F0BBEF05F0F3EF05F0040134BF70
:100B7A00C1EF05F0C3EF05F0D1EF05F034510F0BCB
:100B8A00156E166ADA0E1524D96E000E1620DA6E64
:100B9A000001DF92DDEF05F034510F0B156E166A76
:100BAA00DD0E1524D96E000E1620DA6E0001DF92D2
:100BBA001AC0D9FF1BC0DAFF3B0EDF16000E0E6EFD
:100BCA00050E0D6E1AC00FF01BC010F0000E126E4B
:100BDA00020E116E17EC18F0F9EF05F01AC0D9FFE2
:100BEA001BC0DAFF3B0EDF16040134510F0B156EE2
:100BFA00166A6A0E1524176E0F0E1620186E17C085
:100C0A00D9FF18C0DAFFFE0EDF1612004604D8A478
:100C1A0011EF06F013EF06F020EF06F060BA18EFB6
:100C2A0006F01AEF06F020EF06F0000E656E6480FB
:100C3A006488020E466E65A425EF06F027EF06F0DB
:100C4A0031EF06F064A42CEF06F02EEF06F031EF38
:100C5A0006F0659479EC1BF060A236EF06F038EFE7
:100C6A0006F03BEF06F0A4941EEF07F065A040EFF4
:100C7A0006F042EF06F04FEF06F064A047EF06F0E9
:100C8A0049EF06F04FEF06F00CEC0DF0A384040ECA
:100C9A00466E659065A854EF06F056EF06F05FEFD2
:100CAA0006F064A85BEF06F05DEF06F05FEF06F072
:100CBA0026EC1CF065AC64EF06F066EF06F091EFE7
:100CCA0006F064AC6BEF06F06DEF06F07BEF06F012
:100CDA00000E0E6E730E0D6E000E0F6E000E106E6D
:100CEA00000E126E010E116E17EC18F0659CF3ECF3
:100CFA001BF04050D8B484EF06F086EF06F087EF79
:100D0A0006F040064050D8A48DEF06F08FEF06F0AB
:100D1A0091EF06F083EC13F065AA96EF06F098EFD0
:100D2A0006F0A1EF06F064AA9DEF06F09FEF06F029
:100D3A00A1EF06F00FEC1AF065A2A6EF06F0A8EFF5
:100D4A0006F0BEEF06F064A2ADEF06F0AFEF06F0D4
:100D5A00BEEF06F07F0E0E6E0D68000E0F6E000ECF
:100D6A00106E000E126E010E116E17EC18F0000EC6
:100D7A00676E040E4660C4EF06F0C6EF06F0C9EFD0
:100D8A0006F0A4941EEF07F064A6CEEF06F0D0EFAB
:100D9A0006F01DEF07F0000E1F6E65A6D7EF06F0EE
:100DAA00D9EF06F01DEF07F061CF50F05030E8326E
:100DBA00E8320F0B426E659650B4E6EF06F0E8EFA4
:100DCA0006F0F2EF06F0DA0E4224D96EDA6A000E65
:100DDA00DA220001DF70FAEF06F0DD0E4224D96E46
:100DEA00DA6A000EDA220001DF704250D8A400EF5E
:100DFA0007F002EF07F006EF07F06FEC16F014EFBA
:100E0A0007F0000E0E6E720E0D6E500E0F6E000E73
:100E1A00106E000E126E000E116E17EC18F01F2ADB
:100E2A00030E1F641BEF07F01DEF07F0D2EF06F069
:100E3A00A4941200A3940001E251E311D8B428EF5C
:100E4A0007F02AEF07F038EF07F0E2C0D9FFE3C056
:100E5A00DAFFDFAE33EF07F035EF07F038EF07F0D0
:100E6A00A384F9EF07F0030E01010619D8A440EF95
:100E7A0007F042EF07F044EF07F0000E066F065145
:100E8A00D8A44AEF07F04CEF07F04FEF07F0A3841E
:100E9A00F9EF07F0020E0619D8A456EF07F058EF3B
:100EAA0007F06CEF07F0010EA76F000EA86F000E97
:100EBA00A96F000EAA6F020E54EC0EF0A7C1E2F061
:100ECA00A8C1E3F0030E0101066FF8EF07F006056B
:100EDA00D8A472EF07F074EF07F0F8EF07F0400EAE
:100EEA000001E7657BEF07F07DEF07F082EF07F07F
:100EFA00400E0101B36F84EF07F0E7C0B3F10101BF
:100F0A00B3510001E75DE76F000ED46F050ED56F90
:100F1A00B3C1B2F1E651D8A495EF07F097EF07F005
:100F2A00C6EF07F0AAEF07F0D7C0D9FFD8C0DAFF9B
:100F3A00D4C0E1FFD5C0E2FFDFCFE7FF0001D44B09
:100F4A00D52BD74BD82B0101B2070101B251D8A436
:100F5A00B1EF07F0B3EF07F099EF07F0CFEF07F023
:100F6A00D7C0D9FFD8C0DAFFD4C0E1FFD5C0E2FFAD
:100F7A00DFCFE7FF0001D44BD52BD74BD82B01018C
:100F8A00B2070101B251D8A4CDEF07F0CFEF07F0B5
:100F9A00B5EF07F00001E751D8A4D6EF07F0D8EF74
:100FAA0007F0E8EF07F0400E0101B319D8A4E0EF0B
:100FBA0007F0E2EF07F0E6EF07F0020E066FE8EF40
:100FCA0007F0030E066F010E0101A76F000EA86F4E
:100FDA00050EA96FB3C1AAF1020E54EC0EF0A7C117
:100FEA00E2F0A8C1E3F0A3841200A3940001E25145
:100FFA00E311D8B403EF08F005EF08F013EF08F097
:10100A00E2C0D9FFE3C0DAFFDFAE0EEF08F010EF5F
:10101A0008F013EF08F0A384CCEF08F0030E0101E7
:10102A000619D8A41BEF08F01DEF08F01FEF08F00F
:10103A00000E066F0651D8A425EF08F027EF08F036
:10104A002AEF08F0A384CCEF08F0020E0619D8A400
:10105A0031EF08F033EF08F048EF08F0010E000115
:10106A00606F000E616F000E626F000E636F020EFA
:10107A00F5EC0EF060C0E2F061C0E3F0030E01018E
:10108A00066FCBEF08F00605D8A44EEF08F050EF34
:10109A0008F0CBEF08F0400E0001E76557EF08F0C3
:1010AA0059EF08F05DEF08F0400E6C6F5FEF08F043
:1010BA00E7C06CF06C51E75DE76F000ED46F050E68
:1010CA00D56F6CC06BF0E651D8A46EEF08F070EFE4
:1010DA0008F09AEF08F081EF08F0D7C0D9FFD8C01E
:1010EA00DAFFD4C0E1FFD5C0E2FFDFCFE7FFD44B80
:1010FA00D52BD74BD82B6B076B51D8A487EF08F0A9
:10110A0089EF08F072EF08F0A2EF08F0D7C0D9FF14
:10111A00D8C0DAFFD4C0E1FFD5C0E2FFDFCFE7FFD6
:10112A00D44BD52BD74BD82B6B076B51D8A4A0EF38
:10113A0008F0A2EF08F08BEF08F0E751D8A4A8EF67
:10114A0008F0AAEF08F0BBEF08F0400E6C19D8A41B
:10115A00B1EF08F0B3EF08F0B8EF08F0020E0101A2
:10116A00066FBBEF08F0030E0101066F010E0001C6
:10117A00606F000E616F050E626F6CC063F0020E45
:10118A00F5EC0EF060C0E2F061C0E3F0A384120057
:10119A00A7C1B1F1A8C1B2F10101AB51AC11D8A4F8
:1011AA00D9EF08F0DBEF08F0DDEF08F088EF09F07F
:1011BA00B1C1D9FFB2C1DAFFA9C1DFFFAB51B12575
:1011CA00AD6FAC51B221AE6FFF0EAD25D96EFF0ED9
:1011DA00AE21DA6EA9C1DFFFAC5107E1030EAB5DA8
:1011EA00D8B0FAEF08F0FCEF08F0FEEF08F088EF4D
:1011FA0009F020EE01F0B151D926B251DA22A9C183
:10120A00DFFF20EE02F0B151D926B251DA22A9C18C
:10121A00DFFFAB51B125AD6FAC51B221AE6FFE0EFF
:10122A00AD25D96EFF0EAE21DA6EA9C1DFFFAB5133
:10123A00B125AD6FAC51B221AE6FFD0EAD25D96EA1
:10124A00FF0EAE21DA6EA9C1DFFFAC5107E1070E2E
:10125A00AB5DD8B033EF09F035EF09F037EF09F09D
:10126A0088EF09F020EE03F0B151D926B251DA2203
:10127A00A9C1DFFFAB51B125AD6FAC51B221AE6F41
:10128A00FC0EAD25D96EFF0EAE21DA6EA9C1DFFFC5
:10129A00AC5107E1090EAB5DD8B056EF09F058EF33
:1012AA0009F05AEF09F088EF09F0B1C1ADF1B2C106
:1012BA00AEF1AD1FAE1FAD4BAE2B030EAD15AF6F2A
:1012CA00B06BAF51B127B051B223AF51AB5FB05140
:1012DA00AC5BFC0EAB17FF0EAC177FEF09F0B1C188
:1012EA00D9FFB2C1DAFFA9C1DFFFAB07D8A0AC07AB
:1012FA00B14BB22BAB51AC11D8A486EF09F088EFF1
:10130A0009F074EF09F0120001C00BF002C00CF0F2
:10131A0005500610D8A494EF09F096EF09F098EF5B
:10132A0009F043EF0AF00BC0D9FF0CC0DAFF03C083
:10133A00DFFF05500B24076E06500C20086EFF0EC7
:10134A000724D96EFF0E0820DA6E03C0DFFF0650AD
:10135A0007E1030E055CD8B0B5EF09F0B7EF09F065
:10136A00B9EF09F043EF0AF020EE01F00B50D9264D
:10137A000C50DA2203C0DFFF20EE02F00B50D92610
:10138A000C50DA2203C0DFFF05500B24076E06500B
:10139A000C20086EFE0E0724D96EFF0E0820DA6EA6
:1013AA0003C0DFFF05500B24076E06500C20086EA1
:1013BA00FD0E0724D96EFF0E0820DA6E03C0DFFF88
:1013CA00065007E1070E055CD8B0EEEF09F0F0EF22
:1013DA0009F0F2EF09F043EF0AF020EE03F00B50A8
:1013EA00D9260C50DA2203C0DFFF05500B24076E02
:1013FA0006500C20086EFC0E0724D96EFF0E08203A
:10140A00DA6E03C0DFFF065007E1090E055CD8B0AB
:10141A0011EF0AF013EF0AF015EF0AF043EF0AF0A2
:10142A000BC007F00CC008F0071E081E074A082A5E
:10143A00030E0714096E0A6A09500B260A500C2279
:10144A000950055E0A50065AFC0E0516FF0E0616CE
:10145A003AEF0AF00BC0D9FF0CC0DAFF03C0DFFF76
:10146A000506D8A006060B4A0C2A05500610D8A471
:10147A0041EF0AF043EF0AF02FEF0AF01200800E54
:10148A0004013019D8A44CEF0AF04EEF0AF0FDEF30
:10149A000AF0C00E0001C56FE3EF0AF0980E0001D2
:1014AA00C26F080EC36F000EC76F120EC66FFDEF34
:1014BA000AF03251D8A464EF0AF066EF0AF0A7EFF7
:1014CA000AF03251020D070EF324F66E080EF420CC
:1014DA00F76E0900F5CFC2F00A00F5CFC3F0020E8D
:1014EA000001C225016E000EC321026E01C0F6FF83
:1014FA0002C0F7FFF86A070EF76403D00800F55038
:10150A0005D0F6CFE1FFF7CFE2FFE7500001C66F43
:10151A00030EC225016E000EC321026E01C0F6FF42
:10152A0002C0F7FFF86A070EF76403D00800F55007
:10153A0005D0F6CFE1FFF7CFE2FFE7500001C76F12
:10154A00FDEF0AF0000E0001C56FFDEF0AF0030E71
:10155A003261B2EF0AF0B4EF0AF0D9EF0AF0325171
:10156A00020D010EF324F66E080EF420F76E090040
:10157A00F5CFC2F00A00F5CFC3F0C2C0F6FFC3C070
:10158A00F7FFF86A070EF76403D00800F55005D094
:10159A00F6CFE1FFF7CFE2FFE750016E01500001FD
:1015AA00C66FC76BFDEF0AF0000E0001C56FFDEFB5
:1015BA000AF0000E0001C56FFDEF0AF00401335175
:1015CA00016E026A0250000AD8B4EEEF0AF0DEEFAA
:1015DA000AF00150010AD8B453EF0AF0030AD8B44A
:1015EA005EEF0AF0010AD8B4ACEF0AF0DEEF0AF0B7
:1015FA00120082C0D9FF83C0DAFFDECFF6FFDDCF4B
:10160A00F7FF0800F550250AD8A40EEF0BF010EFEB
:10161A000BF095EF0BF082C0D9FF83C0DAFFDE2A08
:10162A00000EDD22000E0101036F000E026F02C1DF
:10163A00E0F003C1E1F00469056982C0D9FF83C003
:10164A00DAFFDECFF6FFDDCFF7FF0800F550630AB9
:10165A00D8A432EF0BF034EF0BF05CEF0BF082C042
:10166A00D9FF83C0DAFFDE2A000EDD2284C0D9FF4B
:10167A0085C0DAFFDFCF86F0020EDE26DFCF87F0E5
:10168A00000EDD2286C0D9FF87C0DAFFDF500001D5
:10169A00886F80C07BF081C07CF088C07DF0ACECA4
:1016AA0019F07BC080F07CC081F0B1EF0BF082C0F2
:1016BA00D9FF83C0DAFFDECFF6FFDDCFF7FF0800E0
:1016CA00F550250AD8A46CEF0BF06EEF0BF087EFFC
:1016DA000BF082C0D9FF83C0DAFFDE2A000EDD22BA
:1016EA00000E0001616F250E606F80C062F081C03C
:1016FA0063F0A4EC15F0000E0001816F010E806FFB
:10170A00B1EF0BF082C0D9FF83C0DAFFDE2A000EE8
:10171A00DD22000E0001816F000E806FB1EF0BF029
:10172A0082C0D9FF83C0DAFFDECFF6FFDDCFF7FF35
:10173A000800F5500001606F616B80C062F081C0E3
:10174A0063F0A4EC15F082C0D9FF83C0DAFFDE2A69
:10175A00000EDD2280EF0BF01200C9C1D9FFCAC109
:10176A00DAFFDECFF6FFDDCFF7FF0800F550250AD6
:10177A00D8A4C2EF0BF0C4EF0BF046EF0CF0C9C1CE
:10178A00D9FFCAC1DAFFDE2A000EDD22000E0101EE
:10179A00036F000E026F02C1E0F003C1E1F00469B9
:1017AA000569C9C1D9FFCAC1DAFFDECFF6FFDDCFAD
:1017BA00F7FF0800F550630AD8A4E6EF0BF0E8EF4C
:1017CA000BF00FEF0CF0C9C1D9FFCAC1DAFFDE2A4C
:1017DA00000EDD22CBC1D9FFCCC1DAFFDFCFCDF1BC
:1017EA00020EDE26DFCFCEF1000EDD22CDC1D9FFFB
:1017FA00CEC1DAFFDF50CF6FC7C1C2F1C8C1C3F192
:10180A00CFC1C4F13FEC1AF0C2C1C7F1C3C1C8F1DC
:10181A0062EF0CF0C9C1D9FFCAC1DAFFDECFF6FF09
:10182A00DDCFF7FF0800F550250AD8A41FEF0CF00A
:10183A0021EF0CF039EF0CF0C9C1D9FFCAC1DAFFA8
:10184A00DE2A000EDD22000EA86F250EA76FC7C183
:10185A00A9F1C8C1AAF13EEC15F0000E0101C86F4A
:10186A00010EC76F62EF0CF0C9C1D9FFCAC1DAFF16
:10187A00DE2A000EDD22000EC86F000EC76F62EF6F
:10188A000CF0C9C1D9FFCAC1DAFFDECFF6FFDDCF3E
:10189A00F7FF0800F5500101A76FA86BC7C1A9F1AE
:1018AA00C8C1AAF13EEC15F0C9C1D9FFCAC1DAFF15
:1018BA00DE2A000EDD2232EF0CF01200A394000E95
:1018CA00676E000E656E000E6A6E6B0E0101A76FE1
:1018DA000F0EA86F000EAA6F000EA96F000EAC6F54
:1018EA00020EAB6FCDEC08F0160E626E9F0E666E9E
:1018FA007B0E646E000E0101B36FB351040D000E2E
:10190A00F324D96E040EF420DA6EDE6ADE6ADE6A29
:10191A00DD6AB32B0B0EB36595EF0CF097EF0CF065
:10192A0082EF0CF0608C000E636E6098609C659686
:10193A00000E0001C56F000EBD6F000EBF6F000ED6
:10194A00BE6F65B6ABEF0CF0ADEF0CF09CEF0CF090
:10195A00010E3E6E010E3D6E000E3C6E000E3B6E99
:10196A00000EEA6F000E0101B36FB351020DC80EEB
:10197A00F324D96E000EF420DA6E000EDE6E000E2D
:10198A00DD6EB351020DCE0EF324D96E000EF42093
:10199A00DA6E000EDE6E000EDD6EDD0EB325D96E38
:1019AA00DA6A000EDA22000EDF6EDA0EB325D96E7D
:1019BA00DA6A000EDA22000EDF6EB32B020EB3656E
:1019CA00E9EF0CF0EBEF0CF0BAEF0CF0080E0001A7
:1019DA00C86F040EC96F160E6A6E040E0401036FF7
:1019EA00300E026F080E016F040E006F008F000E9A
:1019FA00516E000E2E6E000E2F6E000E306E000E0F
:101A0A00316E000E0001E96F000E466E1200A394BB
:101A1A00000E676E000E656E000E6A6E6B0E016E2A
:101A2A000F0E026E000E046E000E036E000E066E9E
:101A3A00020E056E89EC09F0160E626E9F0E666E36
:101A4A007B0E646E000E0D6E0D50040D000EF32415
:101A5A00D96E040EF420DA6EDE6ADE6ADE6ADD6AA8
:101A6A000D2A0B0E0D643CEF0DF03EEF0DF029EF41
:101A7A000DF0608C000E636E6098609C6596000E97
:101A8A000001C56F000EBD6F000EBF6F000EBE6F66
:101A9A0065B652EF0DF054EF0DF043EF0DF0010E65
:101AAA003E6E010E3D6E000E3C6E000E3B6E000E49
:101ABA00EA6F000E0D6E0D50020DC80EF324D96E9A
:101ACA00000EF420DA6E000EDE6E000EDD6E0D5092
:101ADA00020DCE0EF324D96E000EF420DA6E000E3B
:101AEA00DE6E000EDD6EDD0E0D24D96EDA6A000E92
:101AFA00DA22000EDF6EDA0E0D24D96EDA6A000ED3
:101B0A00DA22000EDF6E0D2A020E0D648FEF0DF041
:101B1A0091EF0DF060EF0DF0080E0001C86F040E92
:101B2A00C96F160E6A6E040E0401036F300E026F3F
:101B3A00080E016F040E006F008F000E516E000E2A
:101B4A002E6E000E2F6E000E306E000E316E000EDD
:101B5A000001E96F000E466E120020EE01F03850C7
:101B6A00D9263950DA22DF50026E02500001BE5DDA
:101B7A00000EBF59D8B0C4EF0DF0C6EF0DF0C8EF94
:101B8A000DF0BEC002F00250BE5F000EBF5B000E39
:101B9A00016EDFEF0DF0380E0124D96EDA6A040EF9
:101BAA00DA22BAC0E1FFBBC0E2FFDFCFE7FFBA4BE0
:101BBA00BB2B012A0250015CD8A0E6EF0DF0E8EF3A
:101BCA000DF0D0EF0DF0BE51BF11D8B4EFEF0DF00C
:101BDA00F1EF0DF02AEF0EF020EE01F03650D92683
:101BEA003750DA22080EDF6E20EE02F03650D92680
:101BFA003750DA22380EDE6E040EDD6E38C0D9FF99
:101C0A0039C0DAFFDFBC0CEF0EF00EEF0EF01CEF5E
:101C1A000EF036C0D9FF37C0DAFF480EDF6E36C085
:101C2A00D9FF37C0DAFF000EDB8E53EF0EF036C055
:101C3A00D9FF37C0DAFF080EDF6E36C0D9FF37C0CA
:101C4A00DAFF000EDB8E53EF0EF020EE01F0365075
:101C5A00D9263750DA22080EDF6E20EE02F036500F
:101C6A00D9263750DA22300EDE6E040EDD6E36C00B
:101C7A00D9FF37C0DAFF040EDF6E36C0D9FF37C08E
:101C8A00DAFF000EDB8EBD9F3F50D8A44FEF0EF057
:101C9A0051EF0EF053EF0EF083EC13F01200010136
:101CAA00AF6F0101A751D8B45DEF0EF05FEF0EF0F0
:101CBA006DEF0EF0AF51020DC80EF324D96E000E6F
:101CCA00F420DA6EDECFB0F1DDCFB1F179EF0EF0AC
:101CDA00AF51020DCE0EF324D96E000EF420DA6E47
:101CEA00DECFB0F1DDCFB1F1B051B111D8A480EFA0
:101CFA000EF082EF0EF088EF0EF0000EA76F000EC6
:101D0A00A86FF4EF0EF020EE02F0B051D926B151CF
:101D1A00DA22A8C1DEFFA9C1DDFF20EE01F0B05131
:101D2A00D926B151DA22AAC1DFFFB0C1D9FFB1C1A8
:101D3A00DAFF400EDF16B0C1D9FFB1C1DAFF000EDB
:101D4A00DB86B0C1D9FFB1C1DAFF000EDB8EA75125
:101D5A00D8B4B2EF0EF0B4EF0EF0D3EF0EF0AF51ED
:101D6A00020DC80EF324D96E000EF420DA6EDECF0F
:101D7A00ABF1DDCFACF1040EAB19AD6FAC51AE6F68
:101D8A00AF51020DC80EF324D96E000EF420DA6E9C
:101D9A00ADC1DEFFAEC1DDFFF0EF0EF0AF51020DB7
:101DAA00CE0EF324D96E000EF420DA6EDECFABF13C
:101DBA00DDCFACF1040EAB19AD6FAC51AE6FAF51C4
:101DCA00020DCE0EF324D96E000EF420DA6EADC1E8
:101DDA00DEFFAEC1DDFFB0C1A7F1B1C1A8F11200AB
:101DEA000001686F00016051D8B4FEEF0EF000EFF9
:101DFA000FF00EEF0FF06851020DC80EF324D96EE2
:101E0A00000EF420DA6EDECF69F0DDCF6AF01AEF49
:101E1A000FF06851020DCE0EF324D96E000EF42095
:101E2A00DA6EDECF69F0DDCF6AF069516A11D8A4A3
:101E3A0021EF0FF023EF0FF029EF0FF0000E606F84
:101E4A00000E616F95EF0FF020EE02F06951D9266E
:101E5A006A51DA2261C0DEFF62C0DDFF20EE01F0C6
:101E6A006951D9266A51DA2263C0DFFF69C0D9FFF6
:101E7A006AC0DAFF400EDF1669C0D9FF6AC0DAFF0E
:101E8A00000EDB8669C0D9FF6AC0DAFF000EDB8E5E
:101E9A006051D8B453EF0FF055EF0FF074EF0FF015
:101EAA006851020DC80EF324D96E000EF420DA6EC2
:101EBA00DECF64F0DDCF65F0040E6419666F6551FC
:101ECA00676F6851020DC80EF324D96E000EF42014
:101EDA00DA6E66C0DEFF67C0DDFF91EF0FF0685172
:101EEA00020DCE0EF324D96E000EF420DA6EDECF88
:101EFA0064F0DDCF65F0040E6419666F6551676F93
:101F0A006851020DCE0EF324D96E000EF420DA6E5B
:101F1A0066C0DEFF67C0DDFF69C060F06AC061F0BD
:101F2A00120060980001C5BF9DEF0FF09FEF0FF000
:101F3A00E4EF0FF0BDAFA4EF0FF0A6EF0FF0B8EF8C
:101F4A000FF0020E446E3B50D8A4AEEF0FF0B0EF84
:101F5A000FF0B2EF0FF0CBEC16F0000E3D6E000E54
:101F6A003E6E36EF10F020EE01F03650D92637508B
:101F7A00DA22080EDF6E20EE02F03650D9263750EC
:101F8A00DA22300EDE6E040EDD6E36C0D9FF37C09F
:101F9A00DAFF0C0EDF6E36C0D9FF37C0DAFF000E4B
:101FAA00DB8EC8C0D9FFC9C0DAFF040EDF6EC8C015
:101FBA00D9FFC9C0DAFF000EDB8E36EF10F004013C
:101FCA0030AFEAEF0FF0ECEF0FF008EF10F0010E70
:101FDA00446E3C50D8A4F4EF0FF0F6EF0FF0F8EF90
:101FEA000FF0CBEC16F0000E3D6E000E3E6E3F5029
:101FFA00D8A402EF10F004EF10F036EF10F083ECE3
:10200A0013F036EF10F0020E446E20EE01F0365057
:10201A00D9263750DA22080EDF6E20EE02F036504B
:10202A00D9263750DA22300EDE6E040EDD6E36C047
:10203A00D9FF37C0DAFF040EDF6E36C0D9FF37C0CA
:10204A00DAFF000EDB8E000E3D6E000E3E6E3F5034
:10205A00D8A432EF10F034EF10F036EF10F004EF9E
:10206A0010F01200096E0150D8B43EEF10F040EFA4
:10207A0010F04EEF10F00950020DC80EF324D96E7D
:10208A00000EF420DA6EDECF0AF0DDCF0BF05AEF45
:10209A0010F00950020DCE0EF324D96E000EF42072
:1020AA00DA6EDECF0AF0DDCF0BF00A500B10D8A49F
:1020BA0061EF10F063EF10F069EF10F0000E016E9F
:1020CA00000E026ED5EF10F020EE02F00A50D9266B
:1020DA000B50DA2202C0DEFF03C0DDFF20EE01F062
:1020EA000A50D9260B50DA2204C0DFFF0AC0D9FFF2
:1020FA000BC0DAFF400EDF160AC0D9FF0BC0DAFFA9
:10210A00000EDB860AC0D9FF0BC0DAFF000EDB8E99
:10211A000150D8B493EF10F095EF10F0B4EF10F02F
:10212A000950020DC80EF324D96E000EF420DA6E9F
:10213A00DECF05F0DDCF06F0040E0518076E065057
:10214A00086E0950020DC80EF324D96E000EF42051
:10215A00DA6E07C0DEFF08C0DDFFD1EF10F00950CC
:10216A00020DCE0EF324D96E000EF420DA6EDECF05
:10217A0005F0DDCF06F0040E0518076E0650086E4E
:10218A000950020DCE0EF324D96E000EF420DA6E39
:10219A0007C0DEFF08C0DDFF0AC001F00BC002F075
:1021AA00120004013039E832030B0009D8B4E0EF19
:1021BA0010F0E2EF10F02FEF11F068EF11F00001CC
:1021CA00C58F080E466E68EF11F044EC0AF068EF0E
:1021DA0011F0FCEC13F068EF11F0510E0001C26F20
:1021EA00000EC36FC581010EC66FC58F68EF11F06F
:1021FA00F1EC11F068EF11F05DEC04F068EF11F00A
:10220A004E0E34250001C26FC36B000EC323C58175
:10221A00010EC66FC58F68EF11F00001C58F4E0E13
:10222A0004013425D96EDA6A000EDA2232C4DFFFDD
:10223A0068EF11F0000E0E6E020E0D6E000E0F6E9C
:10224A00000E106E000E126E000E116E17EC18F0D2
:10225A0068EF11F031511C6E1D6A1D50000AD8B486
:10226A0039EF11F068EF11F01C50000AD8B4FDEFF5
:10227A0010F0010AD8B401EF11F0020AD8B401EF44
:10228A0011F0060AD8B4E4EF10F0030AD8B4EAEF62
:10229A0010F0010AD8B41FEF11F00F0AD8B4F2EF08
:1022AA0010F0010AD8B4EEEF10F0030AD8B405EF23
:1022BA0011F0010AD8B412EF11F0070AD8B468EF86
:1022CA0011F068EF11F01200080E016E0001C751FB
:1022DA0007E1080EC65DD8B075EF11F077EF11F07F
:1022EA008FEF11F0C6C001F04550D8A47FEF11F06E
:1022FA0081EF11F085EF11F0010E456E8FEF11F0AD
:10230A004504D8A48BEF11F08DEF11F08FEF11F087
:10231A00020E456E0150C65F000EC75B20EE01F04B
:10232A00C851D926C951DA2201C0DFFF380E346EEE
:10233A00040E356EC5B1A4EF11F0A6EF11F0E8EF67
:10234A0011F0C3EF11F0C2C0F6FFC3C0F7FFF86A7D
:10235A0034C0D9FF35C0DAFF070EF76403D008008E
:10236A00F55005D0F6CFE1FFF7CFE2FFE750DF6E79
:10237A000001C24BC32B344A352A01060150D8A4A6
:10238A00C9EF11F0CBEF11F0A8EF11F0F0EF11F057
:10239A00C2C0F6FFC3C0F7FFF86A34C0D9FF35C020
:1023AA00DAFF070EF76403D00800F55005D0F6CF20
:1023BA00E1FFF7CFE2FFE750DF6E0001C24BC32B0C
:1023CA00344A352A01060150D8A4EEEF11F0F0EF95
:1023DA0011F0CDEF11F01200000E0401386F000E5B
:1023EA00396F4EEF12F00001C58F4304D8A400EFF5
:1023FA0012F002EF12F068EF12F00401388368EF6E
:10240A0012F00001C58F68EF12F00001C58F0401B8
:10241A0034BF12EF12F014EF12F025EF12F034511C
:10242A000F0B016E0150020DCE0EF324D96E000E71
:10243A00F420DA6EDECF03F0DDCF04F034EF12F0D1
:10244A0034510F0B016E0150020DC80EF324D96EE0
:10245A00000EF420DA6EDECF03F0DDCF04F003C005
:10246A00D9FF04C0DAFFDFAE3DEF12F03FEF12F002
:10247A0068EF12F003C0D9FF04C0DAFFDFA448EF07
:10248A0012F04AEF12F068EF12F0010E386F68EF9F
:10249A0012F030511F0B016E026A0250000AD8B4C2
:1024AA0059EF12F068EF12F00150000AD8B4F8EFB1
:1024BA0011F0010AD8B406EF12F0030AD8B40AEFF1
:1024CA0012F068EF12F00001C5AF6EEF12F070EF74
:1024DA0012F077EF12F0380EC26F040EC36FC58187
:1024EA00020EC66F1200040130511F0BE806D8B461
:1024FA0081EF12F083EF12F085EF12F0FDEF12F088
:10250A003039E832030BE806D8B48EEF12F090EFB8
:10251A0012F092EF12F0FDEF12F03451D8B498EFA6
:10252A0012F09AEF12F0DCEF12F03405D8B4A0EFF3
:10253A0012F0A2EF12F0DCEF12F0FDEF12F0EB0E48
:10254A000001C26F000EC36F000EC76F080EC66F80
:10255A00C581C58FFDEF12F0EB0E0001C26F000EB0
:10256A00C36FC58FFDEF12F036C4BEF037C4BFF09B
:10257A00470E0001BA6F000EBB6F000EC06F000E4F
:10258A00C16FBD8FFDEF12F0470E0001C26F000E42
:10259A00C36F000EC76F070EC66FC10EC56FFDEF82
:1025AA0012F032C43AF00001C58FFDEF12F031513A
:1025BA00016E026A0250000AD8B4E6EF12F0FDEF8B
:1025CA0012F00150000AD8B4A4EF12F0010AD8B4EC
:1025DA00B1EF12F0210AD8B4B9EF12F0010AD8B457
:1025EA00C9EF12F0030AD8B4D6EF12F0FDEF12F0D9
:1025FA001200C8C0D9FFC9C0DAFF0001000EDFBC53
:10260A00010E026E040EC819C86FC951C96F080EAF
:10261A004618D8A413EF13F015EF13F027EF13F0B1
:10262A00040132517F0B636E6350D8B41FEF13F06D
:10263A0021EF13F025EF13F0100E466E27EF13F07B
:10264A00040E466E4404D8A42DEF13F02FEF13F0B6
:10265A0077EF13F0000120EE02F0C851D926C951D4
:10266A00DA22380EDE6E040EDD6E69EC11F0020E0F
:10267A004518D8A443EF13F045EF13F053EF13F0C6
:10268A00C8C0D9FFC9C0DAFF040EDF6EC8C0D9FFBF
:10269A00C9C0DAFF000EDB8E82EF13F00250D8A415
:1026AA0059EF13F05BEF13F069EF13F0C8C0D9FFCD
:1026BA00C9C0DAFF480EDF6EC8C0D9FFC9C0DAFF49
:1026CA00000EDB8E82EF13F0C8C0D9FFC9C0DAFF53
:1026DA00080EDF6EC8C0D9FFC9C0DAFF000EDB8E54
:1026EA0082EF13F00001BDAF7DEF13F07FEF13F01F
:1026FA0080EF13F0BD9F000E446E12003E50D8A426
:10270A0089EF13F08BEF13F0FBEF13F0010E3E6E1F
:10271A003D50D8A493EF13F095EF13F0FBEF13F0AD
:10272A00010E3D6E020E4418D8A49EEF13F0A0EFDE
:10273A0013F0B7EF13F0000120EE01F0C851D926CB
:10274A00C951DA22000EDF6EC8C0D9FFC9C0DAFF4C
:10275A00480EDF6EC8C0D9FFC9C0DAFF000EDB8E93
:10276A00FBEF13F04404D8A4BDEF13F0BFEF13F04E
:10277A00FBEF13F0000E416E20EE01F03850D9261F
:10278A003950DA22080EDF6E20EE02F03850D926D0
:10279A003950DA22300EDE6E040EDD6E38C0D9FFF3
:1027AA0039C0DAFF040EDF6E38C0D9FF39C0DAFF4C
:1027BA00000EDB8E010E416E20EE01F03650D92656
:1027CA003750DA22080EDF6E20EE02F03650D92694
:1027DA003750DA22300EDE6E040EDD6E36C0D9FFB7
:1027EA0037C0DAFF800EDF6EFBEF13F01200000134
:1027FA00C58F6B0E016E0F0E026E000E046E000E78
:10280A00036E000E066E020E056E89EC09F0000ECC
:10281A00016E040E026E000E046E000E036E000EB0
:10282A00066E300E056E89EC09F0608C000E156E8E
:10283A00DD0E1524D96EDA6A000EDA22000EDF6E7A
:10284A00DA0E1524D96EDA6A000EDA22000EDF6E6D
:10285A00152A020E156434EF14F036EF14F01DEF4A
:10286A0014F04E0E016E000E026E000E046E000E83
:10287A00036E000E066E020E056E89EC09F0609C6E
:10288A00080E0001C86F040EC96F000E386E040EE0
:10289A00396E38C036F039C037F032C451F0515071
:1028AA00D8A45AEF14F05CEF14F060EF14F0100E95
:1028BA00466E70EF14F0000E0E6E010E0D6E510E84
:1028CA000F6E000E106E000E126E010E116E17ECD6
:1028DA0018F0200E466E1200000E0001E86FE45157
:1028EA00E511D8B47BEF14F07DEF14F088EF14F003
:1028FA00E4C0D9FFE5C0DAFFDFBE86EF14F088EF47
:10290A0014F0D5EF14F020EE01F0E451D926E55188
:10291A00DA220101B451DE5CD8B096EF14F098EFD8
:10292A0014F0A2EF14F0000120EE01F0E451D926D0
:10293A00E551DA22DF500101B46F000E0001E86FA1
:10294A00BAEF14F0400EE825D96EDA6A050EDA22DB
:10295A00E8510101B225E16E0001000E0101B32127
:10296A00E26EDFCFE7FF0001E82B0101B45100015D
:10297A00E85DD8A0C3EF14F0C5EF14F0A7EF14F088
:10298A00000E0101A76F400EA86F050EA96F400E39
:10299A00AA6F020E54EC0EF0A7C1E4F0A8C1E5F04C
:1029AA000001E85112000001E0A1DEEF14F0E0EFAF
:1029BA0014F0EAEF14F0B9C1B0F1BAC1B1F1B7C17C
:1029CA00B2F1B8C1B3F110EC1BF00101BCBFF0EFDA
:1029DA0014F0F2EF14F0F8EF14F0BBC1C0F1BCC16F
:1029EA00C1F1FCEF14F0000EC16F000EC06F000EB3
:1029FA00BF6F000EBE6F0FEF15F0000EA86F200E0E
:102A0A00A76FB7C1A9F1B8C1AAF13EEC15F001014F
:102A1A00BE4BBF2BC051BE5DBF51800ABD6FC151B5
:102A2A00800ABD59D8A01CEF15F01EEF15F002EF71
:102A3A0015F00001E0B124EF15F026EF15F030EFA4
:102A4A0015F0B9C1B0F1BAC1B1F1B7C1B2F1B8C1AB
:102A5A00B3F110EC1BF0B9C1A7F1BAC1A8F1B9ECF6
:102A6A001BF00101C051A725B76FC151A821B86F4A
:102A7A0012000101A951AA11D8B446EF15F048EF86
:102A8A0015F051EF15F0A951AA11D8A44FEF15F07E
:102A9A0051EF15F056EF15F0A75172EC1CF0A3EFA9
:102AAA0015F020EE04F0A951D926AA51DA22DE50F7
:102ABA00DE10D8B463EF15F065EF15F080EF15F06E
:102ACA0020EE04F0A951D926AA51DA2210EE02F01A
:102ADA00A951E126AA51E222DE50E65CE650800ABC
:102AEA00AF6FDE50800AAF59D8B07EEF15F080EF95
:102AFA0015F0A3EF15F020EE02F0A951D926AA513C
:102B0A00DA22DECFABF1DDCFACF1A9C1D9FFAAC180
:102B1A00DAFFDECFADF1DDCFAEF1AB51AD25D96E27
:102B2A00AC51AE21DA6EA7C1DFFF20EE02F0A95147
:102B3A00D926AA51DA22DE2A000EDD22120000016D
:102B4A0062516311D8B4ACEF15F0AEEF15F0B7EFE0
:102B5A0015F062516311D8A4B5EF15F0B7EF15F06F
:102B6A00BCEF15F0605173EC1CF009EF16F020EE83
:102B7A0004F06251D9266351DA22DE50DE10D8B44D
:102B8A00C9EF15F0CBEF15F0E6EF15F020EE04F0E3
:102B9A006251D9266351DA2210EE02F06251E1261F
:102BAA006351E222DE50E65CE650800A686FDE502E
:102BBA00800A6859D8B0E4EF15F0E6EF15F009EF8E
:102BCA0016F020EE02F06251D9266351DA22DECFE6
:102BDA0064F0DDCF65F062C0D9FF63C0DAFFDECFF3
:102BEA0066F0DDCF67F064516625D96E65516721BD
:102BFA00DA6E60C0DFFF20EE02F06251D92663511F
:102C0A00DA22DE2A000EDD2212000001E0A110EF16
:102C1A0016F012EF16F01CEF16F072C069F073C0CE
:102C2A006AF070C06BF071C06CF034EC1BF00001FC
:102C3A0075BF22EF16F024EF16F02AEF16F074C0D3
:102C4A0079F075C07AF02EEF16F0000E7A6F000E4A
:102C5A00796F000E786F000E776F41EF16F0000E55
:102C6A00616F200E606F70C062F071C063F0A4ECF7
:102C7A0015F00001774B782B7951775D7851800AEE
:102C8A00766F7A51800A7659D8A04EEF16F050EF37
:102C9A0016F034EF16F0E0B155EF16F057EF16F0D4
:102CAA0061EF16F072C069F073C06AF070C06BF021
:102CBA0071C06CF034EC1BF072C060F073C061F04C
:102CCA00D6EC1BF0000179516025706F7A516121B1
:102CDA00716F12002D0E406E50C01EF0FD0E1E16B2
:102CEA00D8A47AEF16F07CEF16F0BEEF16F050C0BB
:102CFA001EF0D8901E323F0E1E161E50040D000EF6
:102D0A00F324386E040EF420396E38C036F039C018
:102D1A0037F0040E3618366E3750376E38C0D9FF82
:102D2A0039C0DAFFDF30E8320F0B0D0AD8A4A0EF62
:102D3A0016F0A2EF16F0BAEF16F0300E016E040E7E
:102D4A00026E20EE02F03850D9263950DA22DECF50
:102D5A0003F0DDCF04F0000E066E080E056EC2EC1D
:102D6A001AF0CFEC17F0CAEF16F00AEC19F0CAEF16
:102D7A0016F05050FD0B040AD8A4C6EF16F0C8EF9F
:102D8A0016F0CAEF16F0FEEC12F01200000E3C6EBE
:102D9A00000E3B6E020E4418D8A4D6EF16F0D8EFF8
:102DAA0016F0F8EF16F020EE01F03650D92637501B
:102DBA00DA22080EDF6E20EE02F03650D92637509E
:102DCA00DA22380EDE6E040EDD6E36C0D9FF37C049
:102DDA00DAFF480EDF6E36C0D9FF37C0DAFF000EC1
:102DEA00DB8E24EF17F00001C6510401365D0001A5
:102DFA00C75104013759D8B005EF17F007EF17F09C
:102E0A000BEF17F036C4C6F037C4C7F069EC11F0FF
:102E1A00000120EE02F0C851D926C951DA22380E33
:102E2A00DE6E040EDD6EC8C0D9FFC9C0DAFF480ED7
:102E3A00DF6EC8C0D9FFC9C0DAFF000EDB8E1200F0
:102E4A00066E000E076E040E086E0150026E036ACB
:102E5A00D890023603360650046E056AD8900436B6
:102E6A000536D8900436053602500426035005224A
:102E7A00D89004360536D89004360536045007260D
:102E8A000550082207C0D9FF08C0DAFFDF9E0150AB
:102E9A00D8A452EF17F054EF17F062EF17F006506C
:102EAA00020DCE0EF324D96E000EF420DA6E07C09E
:102EBA00DEFF08C0DDFF6EEF17F00650020DC80EE8
:102ECA00F324D96E000EF420DA6E07C0DEFF08C0C4
:102EDA00DDFF07C0D9FF08C0DAFFDF9C20EE04F04F
:102EEA000750D9260850DA22DF8C12001F0E4664DA
:102EFA0081EF17F083EF17F0CEEF17F060A288EF9B
:102F0A0017F08AEF17F08CEF17F0CEEF17F0470E95
:102F1A000101B26F010EB36F400EB46F71EC14F081
:102F2A000101EC6F0651D8A49DEF17F09FEF17F03F
:102F3A00CCEF17F0EC51D8B4A5EF17F0A7EF17F0C4
:102F4A00C0EF17F0070ED86F010ED96FAE0EDA6F09
:102F5A00080EDB6F000EDD6F690EDC6F000EDF6F8F
:102F6A006F0EDE6F99EC1AF0070E0101A76F010EC2
:102F7A00A86F96EC18F0020E0101EB6F380EEA6F9B
:102F8A00AD0EE82EFED7EA2FFCD7EB2FFAD71FECAF
:102F9A0007F01200000E456E000E3F6E000E3C6EEA
:102FAA00000E3B6E000E416E000E446EC8C0D9FF83
:102FBA00C9C0DAFF7F0EDF16040E0001C819C86FF8
:102FCA00C951C96FC8C0D9FFC9C0DAFF7F0EDF1661
:102FDA00040EC819C86FC951C96F36C0D9FF37C0A6
:102FEA00DAFF7F0EDF16000EC56F000EC76F000EE8
:102FFA00C66F000EBD6F000EBF6F000EBE6FD6EC1F
:10300A0010F0000E0E6E030E0D6E000E0F6E000E07
:10301A00106E000E126E000E116E17EC18F096EC80
:10302A000FF0120021EF18F079EC19F05AEF18F0AE
:10303A0078EC12F05AEF18F00DC013F00EC014F02D
:10304A001450000AD8B430EF18F07F0AD8B453EFFE
:10305A0018F05AEF18F01350010AD8B419EF18F003
:10306A00030AD8B45AEF18F0010AD8B41DEF18F0C1
:10307A00060AD8B45AEF18F0770AD8B45AEF18F0FB
:10308A00010AD8B45AEF18F0070AD8B45AEF18F060
:10309A00010AD8B45AEF18F05AEF18F01350FF0A81
:1030AA00D8B45AEF18F05AEF18F01200E1CF20F016
:1030BA00E2CF21F0D9CF22F0DACF23F0F3CF24F0F8
:1030CA00F4CF25F0F6CF26F0F7CF27F0F8CF28F087
:1030DA00F5CF29F0A3A474EF18F076EF18F080EF7B
:1030EA0018F0A4A47BEF18F07DEF18F080EF18F029
:1030FA000BEC06F0A49429C0F5FF28C0F8FF27C0FE
:10310A00F7FF26C0F6FF25C0F4FF24C0F3FF23C053
:10311A00DAFF22C0D9FF21C0E2FF20C0E1FF5292AC
:10312A001100A39401010651D8B49EEF18F0A0EF44
:10313A0018F0A3EF18F0A384CFEF18F0000EAB6FCE
:10314A00A7C1A9F1A8C1AAF1AB2BAB29D8A4B0EFAA
:10315A0018F0B2EF18F0B4EF18F0C2EF18F0A9C1E6
:10316A00D9FFAAC1DAFFA94BAA2BDF50D8A4C0EF16
:10317A0018F0C2EF18F0A9EF18F0A7C1D7F0A8C14C
:10318A00D8F0ABC1E7F0000E0001E66F010E0101B5
:10319A00066FA3841200A39401010651D8B4D8EF94
:1031AA0018F0DAEF18F0DDEF18F0A38409EF19F040
:1031BA00000E0001646F60C062F061C063F0642BAE
:1031CA006429D8A4EBEF18F0EDEF18F0EFEF18F040
:1031DA00FDEF18F062C0D9FF63C0DAFF624B632BC0
:1031EA00DF50D8A4FBEF18F0FDEF18F0E4EF18F069
:1031FA0060C0D7F061C0D8F064C0E7F0000EE66F97
:10320A00010E0101066FA3841200020E4418D8A40D
:10321A0011EF19F013EF19F017EF19F0B2EC0DF0E6
:10322A0043EF19F0000E446E4150D8A41FEF19F075
:10323A0021EF19F041EF19F020EE01F03650D926AE
:10324A003750DA22080EDF6E20EE02F03650D92609
:10325A003750DA22300EDE6E040EDD6E36C0D9FF2C
:10326A0037C0DAFF0C0EDF6E36C0D9FF37C0DAFF7F
:10327A00000EDB8E43EF19F0000E416E12008BC078
:10328A008FF08CC090F0000E0101016F000E006FEC
:10329A0066EF19F089C080F08AC081F08F0E0001B4
:1032AA00826F000E836F8DC084F08EC085F0FEECB5
:1032BA000AF000018051010100270001815101013A
:1032CA0001238FC0F6FF90C0F7FF0800F5500009F0
:1032DA00D8A472EF19F074EF19F04FEF19F000C18A
:1032EA0089F001C18AF01200000E476E4B0E486E3B
:1032FA00000E496E000E4A6E000E4B6E000E4C6EAA
:10330A00080E4D6E000E0001E86F1A0E096E010ECE
:10331A00EAEC1AF01E0E096E020EEAEC1AF0000E22
:10332A00016E400E026E050E036E400E046E020E12
:10333A0037EC10F001C0E4F002C0E5F0000E000125
:10334A00E26F000EE36F000E0101066F1200010129
:10335A0002510311D8A4B4EF19F0B6EF19F0BCEF7B
:10336A0019F002C17EF003C17FF0C5EF19F0FF0E1C
:10337A00022500017E6FFF0E0101032100017F6F0C
:10338A007DC087F1000E0101886F7BC070F07CC0A0
:10339A0071F0870E0001726F010E736F7EC074F0B8
:1033AA007FC075F00AEC16F070C07BF071C07CF03B
:1033BA001200D2C1D6F1D3C1D7F1000E0101016FBB
:1033CA00000E006FFCEF19F0D0C1C7F1D1C1C8F1EE
:1033DA00D60EC96F010ECA6FD4C1CBF1D5C1CCF1DB
:1033EA00B2EC0BF00101C7510027C8510123D6C125
:1033FA00F6FFD7C1F7FF0800F5500009D8A408EF77
:10340A001AF00AEF1AF0E9EF19F000C1D0F101C180
:10341A00D1F112006AA014EF1AF016EF1AF03DEF7C
:10342A001AF038C0D9FF39C0DAFF800EDE18D8A4E6
:10343A0021EF1AF023EF1AF03CEF1AF0C8C0D9FFB7
:10344A00C9C0DAFF840EDE18D8A42EEF1AF030EFC6
:10345A001AF03CEF1AF038C0D9FF39C0DAFF0C0E67
:10346A00DF6E38C0D9FF39C0DAFF000EDB8E6A90F2
:10347A00659A1200010102510311D8A447EF1AF00C
:10348A0049EF1AF04FEF1AF002C1C5F103C1C6F1B4
:10349A0055EF1AF0FF0E0225C56FFF0E0321C66F06
:1034AA00C4C187F1000E886FC2C1B7F1C3C1B8F1B8
:1034BA00870EB96F010EBA6FC5C1BBF1C6C1BCF1A7
:1034CA00D8EC14F0B7C1C2F1B8C1C3F11200950E1D
:1034DA0000019B6F000E9C6F91C09DF092C09EF000
:1034EA00000EA06F000E9F6F000EA26F000EA16F5C
:1034FA009D0E896F000E8A6F93C08BF094C08CF07A
:10350A009B0E8D6F000E8E6F44EC19F089C099F0F6
:10351A008AC09AF000019F519125D96EA05192213B
:10352A00DA6E000EDF6E1200DC0E0101E26F010E90
:10353A00E36FD8C1E4F1D9C1E5F1000EE76F000EDF
:10354A00E66F000EE96F000EE86FE40ED06F010E11
:10355A00D16FDAC1D2F1DBC1D3F1E20ED46F010E21
:10356A00D56FDEEC19F00101E651D825D96EE75185
:10357A00D921DA6E000EDF6E120003C009F004C012
:10358A000AF001C007F002C008F0DCEF1AF009C027
:10359A00D9FF0AC0DAFFDF500B6E094A0A2A07C0B0
:1035AA00D9FF08C0DAFF0BC0DFFF074A082A050661
:1035BA00D8A00606052806E10628D8A4E7EF1AF0DF
:1035CA00E9EF1AF0CCEF1AF012000C6E09A4F0EF32
:1035DA001AF0F2EF1AF0F7EF1AF0000E016E0C5023
:1035EA0025EC17F009A2FCEF1AF0FEEF1AF003EF30
:1035FA001BF0010E016E0C5025EC17F06A0E0C241C
:10360A000A6E0B6A0F0E0B220AC0D9FF0BC0DAFF33
:10361A0009C0DFFF1200000E0101B66F000EB56F80
:10362A0023EF1BF0B4C1A7F1A86BB2C1A9F1B3C1D2
:10363A00AAF13EEC15F00101B54BB62BB551B025F8
:10364A00D96EB651B121DA6EDF50B46FB451D8A435
:10365A0031EF1BF033EF1BF017EF1BF01200000ED7
:10366A0000016F6F000E6E6F47EF1BF06DC060F0C8
:10367A00616B6BC062F06CC063F0A4EC15F00001E2
:10368A006E4B6F2B6E516925D96E6F516A21DA6EB6
:10369A00DF506D6F6D51D8A455EF1BF057EF1BF03B
:1036AA003BEF1BF012004650D8A45EEF1BF060EF10
:1036BA001BF078EF1BF0000E606E000E646E160EA3
:1036CA00626E9F0E666E7B0E646EA584A3846FEF96
:1036DA001BF0608660A674EF1BF076EF1BF06EEFAE
:1036EA001BF0010E466E1200000E0001EA6F000E7A
:1036FA000E6E740E0D6E000E0F6E000E106E000E22
:10370A00126E000E116E17EC18F0609264948FEF2F
:10371A001BF0659465B494EF1BF096EF1BF08EEFE7
:10372A001BF0000E0001E96F1200000E8D6E000EF4
:10373A008C6E000E896E000E8A6E000E8B6E070E5E
:10374A00966E92689368C00E946E95680F015E69D2
:10375A00C40E5D6F3F0E5C6F070E5F6F2F0E5B6FBF
:10376A00000E856EF18E1200A7C1A9F1A8C1AAF1B7
:10377A00C2EF1BF00101A74BA82BA7C1D9FFA8C113
:10378A00DAFFDF50D8A4CCEF1BF0CEEF1BF0BFEF6F
:10379A001BF00101A951A75DA76FAA51A859A86FEB
:1037AA00120060C062F061C063F0DFEF1BF000013D
:1037BA00604B612B60C0D9FF61C0DAFFDF50D8A42B
:1037CA00E9EF1BF0EBEF1BF0DCEF1BF0000162519D
:1037DA00605D606F63516159616F1200010E2E26A0
:1037EA00000E2F22302231220001EA51D8A400EF24
:1037FA001CF002EF1CF00CEF1CF0E92BE951D8A4E5
:10380A0009EF1CF00BEF1CF00CEF1CF0E969120039
:10381A0001EE00F0A70EEE6AE806FDE100EEB0F058
:10382A00430EEE6AE806FDE100EE2AF0280EEE6A83
:10383A00E806FDE152905292000EF86E00013DEF4B
:10384A001CF0648465986082010E0001EA6F000E24
:10385A00E96F000E0E6E750E0D6E000E0F6E000EE5
:10386A00106E000E126E000E116E17EC18F0120098
:10387A005FEC1CF0060ED56EE50ED66E480ED76EBE
:10388A00D58EF294F194F28A7BEC17F049EF1CF092
:10389A008EEF00F0700ED36E100ED26E800E9B6EFD
:1038AA00100EB56ED2AE5CEF1CF05EEF1CF057EF57
:1038BA001CF012006AEC1CF09AEC1BF04FEC1CF0A6
:1038CA0063EC0CF058EC1BF01200A384A584D08E94
:0E38DA00A584F28CD08EF28E12001200120025
:020000040020DA
:08000000FFFFFFFFFFFFFFFF00
:020000040030CA
:0E00000021285F3CFFD181FF0FC00FE00F40B1
:00000001FF
