:040000003FEF00F0DE
:100008005382E1CF49F0E2CF4AF0D9CF4BF0DACFB3
:100018004CF0F3CF4DF0F4CF4EF0F6CF4FF0F7CFD2
:1000280050F0F8CF51F0F5CF52F0A3A41EEF00F036
:1000380020EF00F029EF00F0A4A425EF00F027EF4F
:1000480000F029EF00F0C8EC07F052C0F5FF51C0EE
:10005800F8FF50C0F7FF4FC0F6FF4EC0F4FF4DC089
:10006800F3FF4CC0DAFF4BC0D9FF4AC0E2FF49C0DA
:0A007800E1FF539211001BEF23F08B
:1008000000AA084C088008090809024300020100F8
:10081000C032090400000102020100052400100199
:100820000424020205240600010524010001070535
:1008300081030A000209040100020A000000070502
:1008400002024000000705820240000034034D0010
:100850006900630072006F00630068006900700047
:10086000200054006500630068006E006F006C009B
:100870006F0067007900200049006E0063002E00C1
:10088000180350004900430031003800460034008E
:1008900035004B0035003000120100020200000854
:1008A000D8040A00000101020001040309047425B0
:0908B0006320682563200A0000A2
:1008BA0004013205D8A464EF04F066EF04F082EF75
:1008CA0004F030511F0B0009D8A46EEF04F070EF4A
:1008DA0004F082EF04F00001758F030E0401311950
:1008EA00D8A47AEF04F07CEF04F080EF04F0010E54
:1008FA00186E82EF04F0000E186E3251D8A488EFF9
:10090A0004F08AEF04F019EF06F030511F0B020AC7
:10091A00D8A492EF04F094EF04F019EF06F03451E2
:10092A000F0B0009D8B49CEF04F09EEF04F019EF06
:10093A0006F034510F0B0001BD6F030EBD61A8EF25
:10094A0004F0AAEF04F019EF06F0200EA419D8A4B7
:10095A00B1EF04F0B3EF04F019EF06F0758F04015C
:10096A0034BFBAEF04F0BCEF04F0DCEF04F034510A
:10097A000F0B0001BD6FBD51020D7E0EF324D96E1F
:10098A00000EF420DA6EDECFC2F0DDCFC3F0040130
:10099A0034510F0B0001BD6FBE6B8A0EBD25D96E97
:1009AA00000EBE21DA6EDF50C16FFAEF04F0345147
:1009BA000F0B0001BD6FBD51020D780EF324D96EE5
:1009CA00000EF420DA6EDECFC2F0DDCFC3F00401F0
:1009DA0034510F0B0001BD6FBE6B8D0EBD25D96E54
:1009EA00000EBE21DA6EDF50C16FC1B1FFEF04F015
:1009FA0001EF05F009EF05F0FB0EC215C26FFF0EFD
:100A0A00C315C36F0EEF05F0040EC211C26FC351B6
:100A1A00C36F040134BF14EF05F016EF05F028EF99
:100A2A0005F034510F0B0001BD6FBD51020D7E0E52
:100A3A00F324D96E000EF420DA6EC2C0DEFFC3C002
:100A4A00DDFF38EF05F034510F0B0001BD6FBD51CA
:100A5A00020D780EF324D96E000EF420DA6EC2C0AD
:100A6A00DEFFC3C0DDFF030E04013119D8A440EF35
:100A7A0005F042EF05F07EEF05F0C2C0D9FFC3C012
:100A8A00DAFF0001DFAE4CEF05F04EEF05F070EF34
:100A9A0005F0040134BF54EF05F056EF05F064EF9A
:100AAA0005F034510F0B0001BD6FBE6B8A0EBD25D8
:100ABA00D96E000EBE21DA6EDF8270EF05F0345176
:100ACA000F0B0001BD6FBE6B8D0EBD25D96E000EDA
:100ADA00BE21DA6EDF82C2C0D9FFC3C0DAFF000EC0
:100AEA00DB84C2C0D9FFC3C0DAFF000EDB8E19EF68
:100AFA0006F0040E0001C219C26FC351C36FC2C00F
:100B0A00D9FFC3C0DAFFDFAE8DEF05F08FEF05F036
:100B1A00ABEF05F0C2C0D9FFC3C0DAFF7F0EDF1604
:100B2A00C2C0D9FFC3C0DAFF000EDB8C000EB66F5D
:100B3A00050EB56FC2C0B7F0C3C0B8F0000EBA6FE9
:100B4A00020EB96FD7EC1EF0B1EF05F0C2C0D9FFA3
:100B5A00C3C0DAFF000EDB8C040E0001C219C26F9B
:100B6A00C351C36FC1B3BCEF05F0BEEF05F0C9EFC7
:100B7A0005F0C2C0D9FFC3C0DAFFDFAEC7EF05F088
:100B8A00C9EF05F001EF06F0040134BFCFEF05F01D
:100B9A00D1EF05F0DFEF05F034510F0B0001BD6F07
:100BAA00BE6B8A0EBD25D96E000EBE21DA6EDF92AB
:100BBA00EBEF05F034510F0B0001BD6FBE6B8D0ECC
:100BCA00BD25D96E000EBE21DA6EDF92C2C0D9FFF2
:100BDA00C3C0DAFF3B0EDF16000EB66F050EB56F07
:100BEA00C2C0B7F0C3C0B8F0000EBA6F020EB96F38
:100BFA00D7EC1EF007EF06F0C2C0D9FFC3C0DAFF78
:100C0A003B0EDF16040134510F0B0001BD6FBE6BA2
:100C1A006A0EBD25BF6F0F0EBE21C06FBFC0D9FFC0
:100C2A00C0C0DAFFFE0EDF16120004013205D8A496
:100C3A0021EF06F023EF06F03FEF06F030511F0BCD
:100C4A000009D8A42BEF06F02DEF06F03FEF06F0CF
:100C5A000001758F030E04013119D8A437EF06F08D
:100C6A0039EF06F03DEF06F0010E186E3FEF06F081
:100C7A00000E186E3251D8A445EF06F047EF06F081
:100C8A00C7EF07F030511F0B020AD8A44FEF06F046
:100C9A0051EF06F0C7EF07F034510F0B0009D8B433
:100CAA0059EF06F05BEF06F0C7EF07F034510F0B70
:100CBA003E6E030E3E6064EF06F066EF06F0C7EF85
:100CCA0007F0200E0001A419D8A46EEF06F070EF09
:100CDA0006F0C7EF07F0758F040134BF77EF06F00F
:100CEA0079EF06F096EF06F034510F0B3E6E3E5048
:100CFA00020D7E0EF324D96E000EF420DA6EDECFDA
:100D0A0043F0DDCF44F034510F0B3E6E3F6A8A0E3A
:100D1A003E24D96E000E3F20DA6EDF50426EB1EFEC
:100D2A0006F034510F0B3E6E3E50020D780EF3243E
:100D3A00D96E000EF420DA6EDECF43F0DDCF44F038
:100D4A0034510F0B3E6E3F6A8D0E3E24D96E000E53
:100D5A003F20DA6EDF50426E42B0B6EF06F0B8EFCF
:100D6A0006F0C0EF06F0FB0E4314436EFF0E441468
:100D7A00446EC5EF06F0040E4310436E4450446EB1
:100D8A0034BFCAEF06F0CCEF06F0DDEF06F03451BF
:100D9A000F0B3E6E3E50020D7E0EF324D96E000EEE
:100DAA00F420DA6E43C0DEFF44C0DDFFECEF06F04C
:100DBA0034510F0B3E6E3E50020D780EF324D96E5D
:100DCA00000EF420DA6E43C0DEFF44C0DDFF030EDE
:100DDA003119D8A4F3EF06F0F5EF06F02FEF07F07C
:100DEA0043C0D9FF44C0DAFFDFAEFEEF06F000EFE2
:100DFA0007F021EF07F034BF05EF07F007EF07F020
:100E0A0015EF07F034510F0B3E6E3F6A8A0E3E24EF
:100E1A00D96E000E3F20DA6E0001DF8221EF07F063
:100E2A0034510F0B3E6E3F6A8D0E3E24D96E000E72
:100E3A003F20DA6E0001DF8243C0D9FF44C0DAFFE7
:100E4A00000EDB8443C0D9FF44C0DAFF000EDB8EFC
:100E5A00C7EF07F0040E4318436E4450446E43C074
:100E6A00D9FF44C0DAFFDFAE3DEF07F03FEF07F0EE
:100E7A005BEF07F043C0D9FF44C0DAFF7F0EDF16ED
:100E8A0043C0D9FF44C0DAFF000EDB8C000E376E78
:100E9A00050E366E43C038F044C039F0000E3B6E82
:100EAA00020E3A6E1CEC1FF061EF07F043C0D9FF47
:100EBA0044C0DAFF000EDB8C040E4318436E445024
:100ECA00446E42B26BEF07F06DEF07F078EF07F070
:100EDA0043C0D9FF44C0DAFFDFAE76EF07F078EF00
:100EEA0007F0B0EF07F0040134BF7EEF07F080EFA0
:100EFA0007F08EEF07F034510F0B3E6E3F6A8A0EF1
:100F0A003E24D96E000E3F20DA6E0001DF929AEF7E
:100F1A0007F034510F0B3E6E3F6A8D0E3E24D96E98
:100F2A00000E3F20DA6E0001DF9243C0D9FF44C0B1
:100F3A00DAFF3B0EDF16000E376E050E366E43C023
:100F4A0038F044C039F0000E3B6E020E3A6E1CECCB
:100F5A001FF0B6EF07F043C0D9FF44C0DAFF3B0EDB
:100F6A00DF16040134510F0B3E6E3F6A6A0E3E24AF
:100F7A00406E0F0E3F20416E40C0D9FF41C0DAFFDC
:100F8A00FE0EDF1612000001A405D8A4CFEF07F069
:100F9A00D1EF07F0DEEF07F060BAD6EF07F0D8EF2F
:100FAA0007F0DEEF07F0000E656E64806488020EBB
:100FBA00A46F65A4E3EF07F0E5EF07F0EFEF07F0A2
:100FCA0064A4EAEF07F0ECEF07F0EFEF07F065949F
:100FDA008AEC22F060A2F4EF07F0F6EF07F0F9EFDF
:100FEA0007F0A494E2EF08F065A0FEEF07F000EF27
:100FFA0008F00EEF08F064A005EF08F007EF08F01C
:10100A000EEF08F00CEC0FF0A384040E0001A46F9D
:10101A00659065A813EF08F015EF08F01EEF08F0C9
:10102A0064A81AEF08F01CEF08F01EEF08F04BEC6A
:10103A0023F065AC23EF08F025EF08F051EF08F034
:10104A0064AC2AEF08F02CEF08F03AEF08F0000E33
:10105A00376E730E366E000E386E000E396E000E45
:10106A003B6E010E3A6E1CEC1FF0659C01EC23F0FE
:10107A000001A151D8B444EF08F046EF08F047EF59
:10108A0008F0A107A151D8A44DEF08F04FEF08F0DE
:10109A0051EF08F048EC19F065AA56EF08F058EF3E
:1010AA0008F061EF08F064AA5DEF08F05FEF08F05E
:1010BA0061EF08F0D3EC20F065A266EF08F068EF64
:1010CA0008F07EEF08F064A26DEF08F06FEF08F009
:1010DA007EEF08F07F0E376E3668000E386E000E0F
:1010EA00396E000E3B6E010E3A6E1CEC1FF0000EBC
:1010FA00676E040E0001A46185EF08F087EF08F01F
:10110A008AEF08F0A494E2EF08F064A68FEF08F0E3
:10111A0091EF08F0E1EF08F0000E486E030E486404
:10112A0099EF08F09BEF08F09DEF08F0E1EF08F067
:10113A0065A6A2EF08F0A4EF08F0E1EF08F061CF8E
:10114A00A7F00001A731E832E8320F0BA26F6596CB
:10115A00A7B5B2EF08F0B4EF08F0BDEF08F08A0EB9
:10116A00A225D96EDA6A000EDA22DF70C4EF08F01F
:10117A008D0EA225D96EDA6A000EDA22DF70A2512C
:10118A00D8A4CAEF08F0CCEF08F0D0EF08F0D7ECFB
:10119A001BF0DEEF08F0000E376E720E366EA70EE9
:1011AA00386E000E396E000E3B6E000E3A6E1CEC65
:1011BA001FF0482A93EF08F0A49412000001A40536
:1011CA00D8A4EAEF08F0ECEF08F0F9EF08F060BAFB
:1011DA00F1EF08F0F3EF08F0F9EF08F0000E656E92
:1011EA0064806488020EA46F65A4FEEF08F000EF25
:1011FA0009F00AEF09F064A405EF09F007EF09F016
:10120A000AEF09F0659469EC22F060A20FEF09F089
:10121A0011EF09F014EF09F0A494FBEF09F065A0AF
:10122A0019EF09F01BEF09F029EF09F064A020EF8C
:10123A0009F022EF09F029EF09F066EC0EF0A38419
:10124A00040E0001A46F659065A82EEF09F030EF37
:10125A0009F039EF09F064A835EF09F037EF09F022
:10126A0039EF09F034EC23F065AC3EEF09F040EFBA
:10127A0009F06DEF09F064AC45EF09F047EF09F0AA
:10128A0056EF09F0000E0001B66F730EB56F000E2F
:10129A00B76F000EB86F000EBA6F010EB96FD7ECB8
:1012AA001EF0659CE7EC22F00001A151D8B460EF72
:1012BA0009F062EF09F063EF09F0A107A151D8A480
:1012CA0069EF09F06BEF09F06DEF09F0CFEC18F058
:1012DA0065AA72EF09F074EF09F07DEF09F064AACC
:1012EA0079EF09F07BEF09F07DEF09F0A3EC20F02C
:1012FA0065A282EF09F084EF09F09BEF09F064A27E
:10130A0089EF09F08BEF09F09BEF09F07F0E0001DE
:10131A00B66FB569000EB76F000EB86F000EBA6FE0
:10132A00010EB96FD7EC1EF0000E676E040E0001B5
:10133A00A461A2EF09F0A4EF09F0A7EF09F0A494C1
:10134A00FBEF09F064A6ACEF09F0AEEF09F0FAEF93
:10135A0009F0000EC76F65A6B5EF09F0B7EF09F0FF
:10136A00FAEF09F061CFA7F0A731E832E8320F0BA4
:10137A00A26F6596A7B5C4EF09F0C6EF09F0CFEFE3
:10138A0009F08A0EA225D96EDA6A000EDA22DF7017
:10139A00D6EF09F08D0EA225D96EDA6A000EDA228E
:1013AA00DF70A251D8A4DCEF09F0DEEF09F0E2EF1A
:1013BA0009F07AEC1BF0F0EF09F0000EB66F720E2E
:1013CA00B56FA70EB76F000EB86F000EBA6F000E9A
:1013DA00B96FD7EC1EF00001C72B030EC765F8EFF3
:1013EA0009F0FAEF09F0B0EF09F0A4941200A394FF
:1013FA00000198519911D8B405EF0AF007EF0AF0E5
:10140A0015EF0AF098C0D9FF99C0DAFFDFAE10EFE6
:10141A000AF012EF0AF015EF0AF0A384C8EF0AF0F7
:10142A00030E9F19D8A41CEF0AF01EEF0AF020EF52
:10143A000AF0000E9F6F9F51D8A426EF0AF028EFFA
:10144A000AF02BEF0AF0A384C8EF0AF0020E9F19E4
:10145A00D8A432EF0AF034EF0AF048EF0AF0010E8E
:10146A00A96F000EAA6F000EAB6F000EAC6F020ED2
:10147A0097EC11F0A9C098F0AAC099F0030E0001E8
:10148A009F6FC7EF0AF09F05D8A44EEF0AF050EFFE
:10149A000AF0C7EF0AF0400E9D6556EF0AF058EFC2
:1014AA000AF05CEF0AF0400EB56F5EEF0AF09DC0DD
:1014BA00B5F0B5519D5D9D6F000E846F050E856F69
:1014CA00B5C0B4F09C51D8A46DEF0AF06FEF0AF0E2
:1014DA0099EF0AF080EF0AF087C0D9FF88C0DAFFD7
:1014EA0084C0E1FF85C0E2FFDFCFE7FF844B852B95
:1014FA00874B882BB407B451D8A486EF0AF088EF3B
:10150A000AF071EF0AF0A1EF0AF087C0D9FF88C08C
:10151A00DAFF84C0E1FF85C0E2FFDFCFE7FF844B3B
:10152A00852B874B882BB407B451D8A49FEF0AF0B8
:10153A00A1EF0AF08AEF0AF09D51D8A4A7EF0AF0AA
:10154A00A9EF0AF0B8EF0AF0400EB519D8A4B0EF27
:10155A000AF0B2EF0AF0B6EF0AF0020E9F6FB8EF88
:10156A000AF0030E9F6F010EA96F000EAA6F050EF7
:10157A00AB6FB5C0ACF0020E97EC11F0A9C098F0B1
:10158A00AAC099F0A3841200A9C0B3F0AAC0B4F00B
:10159A000001AD51AE11D8A4D5EF0AF0D7EF0AF089
:1015AA00D9EF0AF084EF0BF0B3C0D9FFB4C0DAFF69
:1015BA00ABC0DFFFAD51B325AF6FAE51B421B06FF1
:1015CA00FF0EAF25D96EFF0EB021DA6EABC0DFFF7A
:1015DA00AE5107E1030EAD5DD8B0F6EF0AF0F8EFB1
:1015EA000AF0FAEF0AF084EF0BF020EE01F0B351A3
:1015FA00D926B451DA22ABC0DFFF20EE02F0B35194
:10160A00D926B451DA22ABC0DFFFAD51B325AF6F93
:10161A00AE51B421B06FFE0EAF25D96EFF0EB021C8
:10162A00DA6EABC0DFFFAD51B325AF6FAE51B42157
:10163A00B06FFD0EAF25D96EFF0EB021DA6EABC0CA
:10164A00DFFFAE5107E1070EAD5DD8B02FEF0BF00B
:10165A0031EF0BF033EF0BF084EF0BF020EE03F0D9
:10166A00B351D926B451DA22ABC0DFFFAD51B3254D
:10167A00AF6FAE51B421B06FFC0EAF25D96EFF0E1D
:10168A00B021DA6EABC0DFFFAE5107E1090EAD5DE6
:10169A00D8B052EF0BF054EF0BF056EF0BF084EF8B
:1016AA000BF0B3C0AFF0B4C0B0F0AF1FB01FAF4B78
:1016BA00B02B030EAF15B16FB26BB151B327B25154
:1016CA00B423B151AD5FB251AE5BFC0EAD17FF0E44
:1016DA00AE177BEF0BF0B3C0D9FFB4C0DAFFABC0D3
:1016EA00DFFFAD07D8A0AE07B34BB42BAD51AE1197
:1016FA00D8A482EF0BF084EF0BF070EF0BF012001E
:10170A00800E04013019D8A48DEF0BF08FEF0BF087
:10171A003FEF0CF0C00E0001756F24EF0CF0980E2D
:10172A00726F080E736F000E776F120E766F3FEFAF
:10173A000CF004013251D8A4A5EF0BF0A7EF0BF07F
:10174A00E8EF0BF03251020D070EF324F66E080E85
:10175A00F420F76E0900F5CF72F00A00F5CF73F0A6
:10176A00020E00017225A96F000E7321AA6FA9C08B
:10177A00F6FFAAC0F7FFF86A070EF76403D008005D
:10178A00F55005D0F6CFE1FFF7CFE2FFE7500001B1
:10179A00766F030E7225A96F000E7321AA6FA9C076
:1017AA00F6FFAAC0F7FFF86A070EF76403D008002D
:1017BA00F55005D0F6CFE1FFF7CFE2FFE750000181
:1017CA00776F3FEF0CF0000E0001756F3FEF0CF0E2
:1017DA00030E04013261F4EF0BF0F6EF0BF01BEF8E
:1017EA000CF03251020D010EF324F66E080EF420AD
:1017FA00F76E0900F5CF72F00A00F5CF73F072C0E8
:10180A00F6FF73C0F7FFF86A070EF76403D0080003
:10181A00F55005D0F6CFE1FFF7CFE2FFE750000120
:10182A00A96FA951766F776B3FEF0CF0000E00019C
:10183A00756F3FEF0CF0000E756F3FEF0CF004016F
:10184A0033510001A96FAA6BAA51000AD8B430EF2C
:10185A000CF020EF0CF0A951010AD8B494EF0BF068
:10186A00030AD8B49EEF0BF0010AD8B4EDEF0BF0DF
:10187A0020EF0CF012002AC034F02BC035F02E50A5
:10188A002F10D8A44BEF0CF04DEF0CF04FEF0CF0EB
:10189A00FAEF0CF034C0D9FF35C0DAFF2CC0DFFFF5
:1018AA002E503424306E2F503520316EFF0E3024E6
:1018BA00D96EFF0E3120DA6E2CC0DFFF2F5007E100
:1018CA00030E2E5CD8B06CEF0CF06EEF0CF070EFDC
:1018DA000CF0FAEF0CF020EE01F03450D926355016
:1018EA00DA222CC0DFFF20EE02F03450D926355020
:1018FA00DA222CC0DFFF2E503424306E2F503520D0
:10190A00316EFE0E3024D96EFF0E3120DA6E2CC0F5
:10191A00DFFF2E503424306E2F503520316EFD0EED
:10192A003024D96EFF0E3120DA6E2CC0DFFF2F5023
:10193A0007E1070E2E5CD8B0A5EF0CF0A7EF0CF06C
:10194A00A9EF0CF0FAEF0CF020EE03F03450D92690
:10195A003550DA222CC0DFFF2E503424306E2F503F
:10196A003520316EFC0E3024D96EFF0E3120DA6E2E
:10197A002CC0DFFF2F5007E1090E2E5CD8B0C8EF4C
:10198A000CF0CAEF0CF0CCEF0CF0FAEF0CF034C00C
:10199A0030F035C031F0301E311E304A312A030E84
:1019AA003014326E336A3250342633503522325074
:1019BA002E5E33502F5AFC0E2E16FF0E2F16F1EF05
:1019CA000CF034C0D9FF35C0DAFF2CC0DFFF2E0679
:1019DA00D8A02F06344A352A2E502F10D8A4F8EF53
:1019EA000CF0FAEF0CF0E6EF0CF01200800E040196
:1019FA003019D8A403EF0DF005EF0DF0B4EF0DF098
:101A0A00C00E0001756F9AEF0DF0980E0001726F0B
:101A1A00080E736F000E776F120E766FB4EF0DF02B
:101A2A003251D8A41BEF0DF01DEF0DF05EEF0DF053
:101A3A003251020D070EF324F66E080EF420F76EEB
:101A4A000900F5CF72F00A00F5CF73F0020E00011B
:101A5A0072252A6E000E73212B6E2AC0F6FF2BC048
:101A6A00F7FFF86A070EF76403D00800F55005D0AF
:101A7A00F6CFE1FFF7CFE2FFE7500001766F030EE2
:101A8A0072252A6E000E73212B6E2AC0F6FF2BC018
:101A9A00F7FFF86A070EF76403D00800F55005D07F
:101AAA00F6CFE1FFF7CFE2FFE7500001776FB4EF1F
:101ABA000DF0000E0001756FB4EF0DF0030E3261E8
:101ACA0069EF0DF06BEF0DF090EF0DF03251020D52
:101ADA00010EF324F66E080EF420F76E0900F5CF16
:101AEA0072F00A00F5CF73F072C0F6FF73C0F7FF09
:101AFA00F86A070EF76403D00800F55005D0F6CF50
:101B0A00E1FFF7CFE2FFE7502A6E2A500001766F15
:101B1A00776BB4EF0DF0000E0001756FB4EF0DF0A6
:101B2A00000E0001756FB4EF0DF0040133512A6EF7
:101B3A002B6A2B50000AD8B4A5EF0DF095EF0DF0E3
:101B4A002A50010AD8B40AEF0DF0030AD8B415EFE7
:101B5A000DF0010AD8B463EF0DF095EF0DF0120005
:101B6A00CBC0D9FFCCC0DAFFDECFF6FFDDCFF7FF5F
:101B7A000800F550250AD8A4C5EF0DF0C7EF0DF0FF
:101B8A0049EF0EF0CBC0D9FFCCC0DAFFDE2A000E37
:101B9A00DD22000E0001936F000E926F92C096F044
:101BAA0093C097F094699569CBC0D9FFCCC0DAFF8E
:101BBA00DECFF6FFDDCFF7FF0800F550630AD8A4A1
:101BCA00E9EF0DF0EBEF0DF012EF0EF0CBC0D9FFFD
:101BDA00CCC0DAFFDE2A000EDD22CDC0D9FFCEC08E
:101BEA00DAFFDFCFCFF0020EDE26DFCFD0F0000E15
:101BFA00DD22CFC0D9FFD0C0DAFFDF50D16FC9C014
:101C0A00C4F0CAC0C5F0D1C0C6F003EC21F0C4C00C
:101C1A00C9F0C5C0CAF065EF0EF0CBC0D9FFCCC081
:101C2A00DAFFDECFF6FFDDCFF7FF0800F550250A11
:101C3A00D8A422EF0EF024EF0EF03CEF0EF0CBC04A
:101C4A00D9FFCCC0DAFFDE2A000EDD22000EAA6F11
:101C5A00250EA96FC9C0ABF0CAC0ACF0AFEC1AF040
:101C6A00000E0001CA6F010EC96F65EF0EF0CBC0FE
:101C7A00D9FFCCC0DAFFDE2A000EDD22000ECA6FC1
:101C8A00000EC96F65EF0EF0CBC0D9FFCCC0DAFFEA
:101C9A00DECFF6FFDDCFF7FF0800F5500001A96F90
:101CAA00AA6BC9C0ABF0CAC0ACF0AFEC1AF0CBC09B
:101CBA00D9FFCCC0DAFFDE2A000EDD2235EF0EF0A6
:101CCA001200A394000E676E000E656E000E6A6E17
:101CDA006B0E0001A96F0F0EAA6F000EAC6F000EFB
:101CEA00AB6F000EAE6F020EAD6FC9EC0AF0160EA6
:101CFA00626E9F0E666E7B0E646E000E0001B56FFB
:101D0A00B551040D000EF324D96E040EF420DA6ED8
:101D1A00DE6ADE6ADE6ADD6AB52B0B0EB56598EF00
:101D2A000EF09AEF0EF085EF0EF0608C000E636EE7
:101D3A006098609C6596000E756F000E6D6F000EC0
:101D4A006F6F000E6E6F65B6ADEF0EF0AFEF0EF06F
:101D5A009FEF0EF0010E156E010E146E000E136E3B
:101D6A00000E126E000EA36F000EB56FB551020D74
:101D7A00780EF324D96E000EF420DA6E000EDE6EB1
:101D8A00000EDD6EB551020D7E0EF324D96E000EE3
:101D9A00F420DA6E000EDE6E000EDD6E8D0EB525B5
:101DAA00D96EDA6A000EDA22000EDF6E8A0EB525C7
:101DBA00D96EDA6A000EDA22000EDF6EB52B020E39
:101DCA00B565EAEF0EF0ECEF0EF0BBEF0EF0080E81
:101DDA00786F040E796F160E6A6E040E0401036F93
:101DEA00300E026F080E016F040E006F008F000E96
:101DFA000001A86F000E056E000E066E000E076E3B
:101E0A00000E086E000EA06F000EA46F1200A394BD
:101E1A00000E676E000E656E000E6A6E6B0E2A6EFD
:101E2A000F0E2B6E000E2D6E000E2C6E000E2F6EF6
:101E3A00020E2E6E40EC0CF0160E626E9F0E666E4F
:101E4A007B0E646E000E366E3650040D000EF324BF
:101E5A00D96E040EF420DA6EDE6ADE6ADE6ADD6AA4
:101E6A00362A0B0E36643CEF0FF03EEF0FF029EFE7
:101E7A000FF0608C000E636E6098609C6596000E91
:101E8A000001756F000E6D6F000E6F6F000E6E6FA2
:101E9A0065B652EF0FF054EF0FF043EF0FF0010E5B
:101EAA00156E010E146E000E136E000E126E000EE9
:101EBA00A36F000E366E3650020D780EF324D96EDB
:101ECA00000EF420DA6E000EDE6E000EDD6E365065
:101EDA00020D7E0EF324D96E000EF420DA6E000E87
:101EEA00DE6E000EDD6E8D0E3624D96EDA6A000EB5
:101EFA00DA22000EDF6E8A0E3624D96EDA6A000EF6
:101F0A00DA22000EDF6E362A020E36648FEF0FF0E9
:101F1A0091EF0FF060EF0FF0080E0001786F040EDA
:101F2A00796F160E6A6E040E0401036F300E026F8B
:101F3A00080E016F040E006F008F000E0001A86FDB
:101F4A00000E056E000E066E000E076E000E086E7D
:101F5A00000EA06F000EA46F120020EE01F00F50C9
:101F6A00D9261050DA22DF500001AA6FAA516E5DFD
:101F7A00000E6F59D8B0C4EF0FF0C6EF0FF0C8EFDC
:101F8A000FF06EC0AAF0AA516E5F000E6F5B000ED2
:101F9A00A96FDFEF0FF0380EA925D96EDA6A040EA1
:101FAA00DA226AC0E1FF6BC0E2FFDFCFE7FF6A4BCC
:101FBA006B2BA92BAA51A95DD8A0E6EF0FF0E8EF89
:101FCA000FF0D0EF0FF06E516F11D8B4EFEF0FF0A2
:101FDA00F1EF0FF02AEF10F020EE01F00D50D926A4
:101FEA000E50DA22080EDF6E20EE02F00D50D926CE
:101FFA000E50DA22380EDE6E040EDD6E0FC0D9FFE7
:10200A0010C0DAFFDFBC0CEF10F00EEF10F01CEF7F
:10201A0010F00DC0D9FF0EC0DAFF480EDF6E0DC0FA
:10202A00D9FF0EC0DAFF000EDB8E53EF10F00DC0A1
:10203A00D9FF0EC0DAFF080EDF6E0DC0D9FF0EC041
:10204A00DAFF000EDB8E53EF10F020EE01F00D5098
:10205A00D9260E50DA22080EDF6E20EE02F00D505D
:10206A00D9260E50DA22300EDE6E040EDD6E0DC059
:10207A00D9FF0EC0DAFF040EDF6E0DC0D9FF0EC005
:10208A00DAFF000EDB8E6D9F1650D8A44FEF10F0CA
:10209A0051EF10F053EF10F0CFEC18F0120020EED1
:1020AA0001F00F50D9261050DA22DF502B6E2B5038
:1020BA0000016E5D000E6F59D8B066EF10F068EF40
:1020CA0010F06AEF10F06EC02BF02B506E5F000E0E
:1020DA006F5B000E2A6E81EF10F0380E2A24D96E3B
:1020EA00DA6A040EDA226AC0E1FF6BC0E2FFDFCFD0
:1020FA00E7FF6A4B6B2B2A2A2B502A5CD8A088EF61
:10210A0010F08AEF10F072EF10F06E516F11D8B420
:10211A0091EF10F093EF10F0CCEF10F020EE01F0F9
:10212A000D50D9260E50DA22080EDF6E20EE02F08C
:10213A000D50D9260E50DA22380EDE6E040EDD6EF0
:10214A000FC0D9FF10C0DAFFDFBCAEEF10F0B0EF5E
:10215A0010F0BEEF10F00DC0D9FF0EC0DAFF480E26
:10216A00DF6E0DC0D9FF0EC0DAFF000EDB8EF5EF71
:10217A0010F00DC0D9FF0EC0DAFF080EDF6E0DC0D9
:10218A00D9FF0EC0DAFF000EDB8EF5EF10F020EE5D
:10219A0001F00D50D9260E50DA22080EDF6E20EE1D
:1021AA0002F00D50D9260E50DA22300EDE6E040EE1
:1021BA00DD6E0DC0D9FF0EC0DAFF040EDF6E0DC052
:1021CA00D9FF0EC0DAFF000EDB8E6D9F1650D8A421
:1021DA00F1EF10F0F3EF10F0F5EF10F048EC19F012
:1021EA0012006098000175BFFDEF10F0FFEF10F0CC
:1021FA0044EF11F06DAF04EF11F006EF11F018EF94
:10220A0011F0020E196E1250D8A40EEF11F010EF51
:10221A0011F012EF11F090EC1CF0000E146E000E8B
:10222A00156E96EF11F020EE01F00D50D9260E50E2
:10223A00DA22080EDF6E20EE02F00D50D9260E507B
:10224A00DA22300EDE6E040EDD6E0DC0D9FF0EC02E
:10225A00DAFF0C0EDF6E0DC0D9FF0EC0DAFF000EDA
:10226A00DB8E78C0D9FF79C0DAFF040EDF6E78C042
:10227A00D9FF79C0DAFF000EDB8E96EF11F0040168
:10228A0030AF4AEF11F04CEF11F068EF11F0010E88
:10229A00196E1350D8A454EF11F056EF11F058EFFD
:1022AA0011F090EC1CF0000E146E000E156E165014
:1022BA00D8A462EF11F064EF11F096EF11F0CFECB1
:1022CA0018F096EF11F0020E196E20EE01F00D5083
:1022DA00D9260E50DA22080EDF6E20EE02F00D50DB
:1022EA00D9260E50DA22300EDE6E040EDD6E0DC0D7
:1022FA00D9FF0EC0DAFF040EDF6E0DC0D9FF0EC083
:10230A00DAFF000EDB8E000E146E000E156E1650EC
:10231A00D8A492EF11F094EF11F096EF11F064EF58
:10232A0011F012000001B16F0001A951D8B4A0EF59
:10233A0011F0A2EF11F0B0EF11F0B151020D780EC9
:10234A00F324D96E000EF420DA6EDECFB2F0DDCFC0
:10235A00B3F0BCEF11F0B151020D7E0EF324D96E29
:10236A00000EF420DA6EDECFB2F0DDCFB3F0B25158
:10237A00B311D8A4C3EF11F0C5EF11F0CBEF11F0F0
:10238A00000EA96F000EAA6F37EF12F020EE02F0CE
:10239A00B251D926B351DA22AAC0DEFFABC0DDFFA3
:1023AA0020EE01F0B251D926B351DA22ACC0DFFFD8
:1023BA00B2C0D9FFB3C0DAFF400EDF16B2C0D9FFF0
:1023CA00B3C0DAFF000EDB86B2C0D9FFB3C0DAFFB2
:1023DA00000EDB8EA951D8B4F5EF11F0F7EF11F02A
:1023EA0016EF12F0B151020D780EF324D96E000ED9
:1023FA00F420DA6EDECFADF0DDCFAEF0040EAD190B
:10240A00AF6FAE51B06FB151020D780EF324D96E91
:10241A00000EF420DA6EAFC0DEFFB0C0DDFF33EF8E
:10242A0012F0B151020D7E0EF324D96E000EF42083
:10243A00DA6EDECFADF0DDCFAEF0040EAD19AF6FC0
:10244A00AE51B06FB151020D7E0EF324D96E000E5B
:10245A00F420DA6EAFC0DEFFB0C0DDFFB2C0A9F073
:10246A00B3C0AAF012006098000175BF3FEF12F0E6
:10247A0041EF12F086EF12F06DAF46EF12F048EF1F
:10248A0012F05AEF12F0020E196E1250D8A450EF41
:10249A0012F052EF12F054EF12F0EAEC1CF0000EB8
:1024AA00146E000E156ED8EF12F020EE01F00D50EA
:1024BA00D9260E50DA22080EDF6E20EE02F00D50F9
:1024CA00D9260E50DA22300EDE6E040EDD6E0DC0F5
:1024DA00D9FF0EC0DAFF0C0EDF6E0DC0D9FF0EC099
:1024EA00DAFF000EDB8E78C0D9FF79C0DAFF040E5E
:1024FA00DF6E78C0D9FF79C0DAFF000EDB8ED8EF25
:10250A0012F0040130AF8CEF12F08EEF12F0AAEF46
:10251A0012F0010E196E1350D8A496EF12F098EF2C
:10252A0012F09AEF12F0EAEC1CF0000E146E000E94
:10253A00156E1650D8A4A4EF12F0A6EF12F0D8EF39
:10254A0012F048EC19F0D8EF12F0020E196E20EED4
:10255A0001F00D50D9260E50DA22080EDF6E20EE59
:10256A0002F00D50D9260E50DA22300EDE6E040E1D
:10257A00DD6E0DC0D9FF0EC0DAFF040EDF6E0DC08E
:10258A00D9FF0EC0DAFF000EDB8E000E146E000EAD
:10259A00156E1650D8A4D4EF12F0D6EF12F0D8EF79
:1025AA0012F0A6EF12F01200326E2A50D8B4E0EF01
:1025BA0012F0E2EF12F0F0EF12F03250020D780E44
:1025CA00F324D96E000EF420DA6EDECF33F0DDCFBD
:1025DA0034F0FCEF12F03250020D7E0EF324D96E65
:1025EA00000EF420DA6EDECF33F0DDCF34F0335054
:1025FA003410D8A403EF13F005EF13F00BEF13F028
:10260A00000E2A6E000E2B6E77EF13F020EE02F00A
:10261A003350D9263450DA222BC0DEFF2CC0DDFF1E
:10262A0020EE01F03350D9263450DA222DC0DFFFD4
:10263A0033C0D9FF34C0DAFF400EDF1633C0D9FFEA
:10264A0034C0DAFF000EDB8633C0D9FF34C0DAFFAC
:10265A00000EDB8E2A50D8B435EF13F037EF13F0A3
:10266A0056EF13F03250020D780EF324D96E000E95
:10267A00F420DA6EDECF2EF0DDCF2FF0040E2E1806
:10268A00306E2F50316E3250020D780EF324D96E0F
:10269A00000EF420DA6E30C0DEFF31C0DDFF73EFCA
:1026AA0013F03250020D7E0EF324D96E000EF42080
:1026BA00DA6EDECF2EF0DDCF2FF0040E2E18306E3C
:1026CA002F50316E3250020D7E0EF324D96E000E59
:1026DA00F420DA6E30C0DEFF31C0DDFF33C02AF0ED
:1026EA0034C02BF0120004013039E832030B000920
:1026FA00D8B482EF13F084EF13F0D1EF13F00AEF9E
:10270A0014F00001758F080EA46F0AEF14F0FBECA9
:10271A000CF00AEF14F039EC1AF00AEF14F0A80ED4
:10272A000001726F000E736F7581010E766F758FDF
:10273A000AEF14F035EC16F00AEF14F01AEC06F072
:10274A000AEF14F0A50E34250001726F736B000EA8
:10275A0073237581010E766F758F0AEF14F00001ED
:10276A00758FA50E04013425D96EDA6A000EDA22B5
:10277A0032C4DFFF0AEF14F0000E376E020E366E17
:10278A00000E386E000E396E000E3B6E000E3A6E69
:10279A001CEC1FF00AEF14F03151456E466A4650A0
:1027AA00000AD8B4DBEF13F00AEF14F04550000A20
:1027BA00D8B49FEF13F0010AD8B4A3EF13F0020ABA
:1027CA00D8B4A3EF13F0060AD8B486EF13F0030ABD
:1027DA00D8B48CEF13F0010AD8B4C1EF13F00F0A82
:1027EA00D8B494EF13F0010AD8B490EF13F0030AA7
:1027FA00D8B4A7EF13F0010AD8B4B4EF13F0070A5C
:10280A00D8B40AEF14F00AEF14F0120004013039B8
:10281A00E832030B0009D8B415EF14F017EF14F0DF
:10282A0062EF14F09CEF14F0758F080EA46F9CEF02
:10283A0014F085EC0BF09CEF14F0C1EC19F09CEF4E
:10284A0014F0A80E726F000E736F7581010E766F09
:10285A00758F9CEF14F09DEC14F09CEF14F05DEC76
:10286A0004F09CEF14F0A50E040134250001726FE8
:10287A00736B000E73237581010E766F758F9CEF53
:10288A0014F0758FA50E04013425D96EDA6A000E8C
:10289A00DA2232C4DFFF9CEF14F0000EB66F020E8C
:1028AA00B56F000EB76F000EB86F000EBA6F000E4C
:1028BA00B96FD7EC1EF09CEF14F031510001C46FD0
:1028CA00C56BC551000AD8B46DEF14F09CEF14F033
:1028DA00C451000AD8B430EF14F0010AD8B434EF66
:1028EA0014F0020AD8B434EF14F0060AD8B419EF77
:1028FA0014F0030AD8B41EEF14F0010AD8B452EF48
:10290A0014F00F0AD8B426EF14F0010AD8B422EF53
:10291A0014F0030AD8B438EF14F0010AD8B446EF19
:10292A0014F0070AD8B49CEF14F09CEF14F01200CC
:10293A00000E0401386F000E396FFAEF14F0758F2C
:10294A001804D8A4ABEF14F0ADEF14F015EF15F09E
:10295A000401388315EF15F0758F15EF15F0758F93
:10296A00040134BFBBEF14F0BDEF14F0CFEF14F045
:10297A0034510F0B0001A96FA951020D7E0EF324E9
:10298A00D96E000EF420DA6EDECFABF0DDCFACF0FC
:10299A00DFEF14F034510F0B0001A96FA951020D9A
:1029AA00780EF324D96E000EF420DA6EDECFABF087
:1029BA00DDCFACF0ABC0D9FFACC0DAFFDFAEE8EFD9
:1029CA0014F0EAEF14F015EF15F0ABC0D9FFACC064
:1029DA00DAFFDFA4F3EF14F0F5EF14F015EF15F0BA
:1029EA00010E0401386F15EF15F030511F0B00016D
:1029FA00A96FAA6BAA51000AD8B406EF15F015EF11
:102A0A0015F0A951000AD8B4A4EF14F0010AD8B4F9
:102A1A00B1EF14F0030AD8B4B4EF14F015EF15F0BF
:102A2A00000175AF1BEF15F01DEF15F024EF15F03F
:102A3A00380E726F040E736F7581020E766F120074
:102A4A00080E0001A96F775107E1080E765DD8B02C
:102A5A0031EF15F033EF15F04BEF15F076C0A9F012
:102A6A001A50D8A43BEF15F03DEF15F041EF15F0E1
:102A7A00010E1A6E4BEF15F01A04D8A447EF15F0A1
:102A8A0049EF15F04BEF15F0020E1A6EA951765F59
:102A9A00000E775B20EE01F07851D9267951DA22BF
:102AAA00A9C0DFFF380E0B6E040E0C6E75B160EF15
:102ABA0015F062EF15F0A4EF15F07FEF15F072C074
:102ACA00F6FF73C0F7FFF86A0BC0D9FF0CC0DAFF34
:102ADA00070EF76403D00800F55005D0F6CFE1FFE2
:102AEA00F7CFE2FFE750DF6E0001724B732B0B4A00
:102AFA000C2AA907A951D8A485EF15F087EF15F07C
:102B0A0064EF15F0ACEF15F072C0F6FF73C0F7FF73
:102B1A00F86A0BC0D9FF0CC0DAFF070EF76403D0BE
:102B2A000800F55005D0F6CFE1FFF7CFE2FFE750F6
:102B3A00DF6E0001724B732B0B4A0C2AA907A951AD
:102B4A00D8A4AAEF15F0ACEF15F089EF15F0120032
:102B5A00080E2A6E0001775107E1080E765DD8B09B
:102B6A00B9EF15F0BBEF15F0D3EF15F076C02AF0E8
:102B7A001A50D8A4C3EF15F0C5EF15F0C9EF15F038
:102B8A00010E1A6ED3EF15F01A04D8A4CFEF15F080
:102B9A00D1EF15F0D3EF15F0020E1A6E2A50765FB8
:102BAA00000E775B20EE01F07851D9267951DA22AE
:102BBA002AC0DFFF380E0B6E040E0C6E75B1E8EFFB
:102BCA0015F0EAEF15F02CEF16F007EF16F072C0C9
:102BDA00F6FF73C0F7FFF86A0BC0D9FF0CC0DAFF23
:102BEA00070EF76403D00800F55005D0F6CFE1FFD1
:102BFA00F7CFE2FFE750DF6E0001724B732B0B4AEF
:102C0A000C2A2A062A50D8A40DEF16F00FEF16F058
:102C1A00ECEF15F034EF16F072C0F6FF73C0F7FF51
:102C2A00F86A0BC0D9FF0CC0DAFF070EF76403D0AD
:102C3A000800F55005D0F6CFE1FFF7CFE2FFE750E5
:102C4A00DF6E0001724B732B0B4A0C2A2A062A509C
:102C5A00D8A432EF16F034EF16F011EF16F0120086
:102C6A00000E0401386F000E396F92EF16F0000162
:102C7A00758F1804D8A444EF16F046EF16F0ACEF9F
:102C8A0016F004013883ACEF16F00001758FACEF33
:102C9A0016F00001758F040134BF56EF16F058EF95
:102CAA0016F069EF16F034510F0B2A6E2A50020DF6
:102CBA007E0EF324D96E000EF420DA6EDECF2CF0ED
:102CCA00DDCF2DF078EF16F034510F0B2A6E2A5013
:102CDA00020D780EF324D96E000EF420DA6EDECFE0
:102CEA002CF0DDCF2DF02CC0D9FF2DC0DAFFDFAEDE
:102CFA0081EF16F083EF16F0ACEF16F02CC0D9FF77
:102D0A002DC0DAFFDFA48CEF16F08EEF16F0ACEFD1
:102D1A0016F0010E386FACEF16F030511F0B2A6E09
:102D2A002B6A2B50000AD8B49DEF16F0ACEF16F0C0
:102D3A002A50000AD8B43CEF16F0010AD8B44AEF78
:102D4A0016F0030AD8B44EEF16F0ACEF16F00001F5
:102D5A0075AFB2EF16F0B4EF16F0BBEF16F0380EFF
:102D6A00726F040E736F7581020E766F120078C04F
:102D7A00D9FF79C0DAFF0001000EDFBC010EAA6F8D
:102D8A00040E7819786F7951796F080EA419D8A4AE
:102D9A00D1EF16F0D3EF16F0E7EF16F00401325137
:102DAA007F0B636E6350D8B4DDEF16F0DFEF16F0D9
:102DBA00E4EF16F0100E0001A46FE7EF16F0040E10
:102DCA000001A46F1904D8A4EDEF16F0EFEF16F086
:102DDA0037EF17F020EE02F07851D9267951DA222E
:102DEA00380EDE6E040EDD6E25EC15F0020E1A1892
:102DFA00D8A402EF17F004EF17F012EF17F078C01B
:102E0A00D9FF79C0DAFF040EDF6E78C0D9FF79C026
:102E1A00DAFF000EDB8E41EF17F00001AA51D8A4A9
:102E2A0019EF17F01BEF17F029EF17F078C0D9FF49
:102E3A0079C0DAFF480EDF6E78C0D9FF79C0DAFFB1
:102E4A00000EDB8E41EF17F078C0D9FF79C0DAFFA8
:102E5A00080EDF6E78C0D9FF79C0DAFF000EDB8E6C
:102E6A0041EF17F06DAF3CEF17F03EEF17F03FEF71
:102E7A0017F06D9F000E196E1200040130511F0BDE
:102E8A00E806D8B44BEF17F04DEF17F04FEF17F0F5
:102E9A00C7EF17F03039E832030BE806D8B458EF19
:102EAA0017F05AEF17F05CEF17F0C7EF17F034512D
:102EBA00D8B462EF17F064EF17F0A6EF17F03405F5
:102ECA00D8B46AEF17F06CEF17F0A6EF17F0C7EF58
:102EDA0017F01B0E0001726F000E736F000E776FF2
:102EEA00080E766F7581758FC7EF17F01B0E0001FC
:102EFA00726F000E736F758FC7EF17F036C46EF0DE
:102F0A0037C46FF0230E00016A6F000E6B6F000E5C
:102F1A00706F000E716F6D8FC7EF17F0230E0001EF
:102F2A00726F000E736F000E776F070E766FC10E09
:102F3A00756FC7EF17F032C411F00001758FC7EF34
:102F4A0017F031512A6E2B6A2B50000AD8B4B0EF11
:102F5A0017F0C7EF17F02A50000AD8B46EEF17F02F
:102F6A00010AD8B47BEF17F0210AD8B483EF17F01F
:102F7A00010AD8B493EF17F0030AD8B4A0EF17F0F8
:102F8A00C7EF17F0120078C0D9FF79C0DAFF000145
:102F9A00000EDFBC010E2B6E040E7819786F795182
:102FAA00796F080EA419D8A4DDEF17F0DFEF17F038
:102FBA00F3EF17F0040132517F0B636E6350D8B4FC
:102FCA00E9EF17F0EBEF17F0F0EF17F0100E000132
:102FDA00A46FF3EF17F0040E0001A46F1904D8A42C
:102FEA00F9EF17F0FBEF17F042EF18F020EE02F0BE
:102FFA007851D9267951DA22380EDE6E040EDD6E4A
:10300A00ADEC15F0020E1A18D8A40EEF18F010EF56
:10301A0018F01EEF18F078C0D9FF79C0DAFF040E55
:10302A00DF6E78C0D9FF79C0DAFF000EDB8E4CEF75
:10303A0018F02B50D8A424EF18F026EF18F034EF2C
:10304A0018F078C0D9FF79C0DAFF480EDF6E78C071
:10305A00D9FF79C0DAFF000EDB8E4CEF18F078C08A
:10306A00D9FF79C0DAFF080EDF6E78C0D9FF79C0C0
:10307A00DAFF000EDB8E4CEF18F06DAF47EF18F059
:10308A0049EF18F04AEF18F06D9F000E196E120002
:10309A00040130511F0BE806D8B456EF18F058EF68
:1030AA0018F05AEF18F0CEEF18F03039E832030B67
:1030BA00E806D8B463EF18F065EF18F067EF18F078
:1030CA00CEEF18F03451D8B46DEF18F06FEF18F056
:1030DA00ACEF18F03405D8B475EF18F077EF18F0A4
:1030EA00ACEF18F0CEEF18F01B0E726F000E736F74
:1030FA00000E776F080E766F7581758FCEEF18F018
:10310A001B0E726F000E736F758FCEEF18F036C4F8
:10311A006EF037C46FF0230E6A6F000E6B6F000EED
:10312A00706F000E716F6D8FCEEF18F0230E726FF5
:10313A00000E736F000E776F070E766FC10E756FF4
:10314A00CEEF18F032C411F0758FCEEF18F031516E
:10315A000001A96FAA6BAA51000AD8B4B7EF18F0F8
:10316A00CEEF18F0A951000AD8B479EF18F0010A85
:10317A00D8B485EF18F0210AD8B48CEF18F0010AF8
:10318A00D8B49BEF18F0030AD8B4A7EF18F0CEEF23
:10319A0018F012001550D8A4D5EF18F0D7EF18F090
:1031AA0047EF19F0010E156E1450D8A4DFEF18F08E
:1031BA00E1EF18F047EF19F0010E146E020E19181C
:1031CA00D8A4EAEF18F0ECEF18F003EF19F00001B9
:1031DA0020EE01F07851D9267951DA22000EDF6EFD
:1031EA0078C0D9FF79C0DAFF480EDF6E78C0D9FF00
:1031FA0079C0DAFF000EDB8E47EF19F01904D8A464
:10320A0009EF19F00BEF19F047EF19F0000E176EDE
:10321A0020EE01F00F50D9261050DA22080EDF6E88
:10322A0020EE02F00F50D9261050DA22300EDE6E50
:10323A00040EDD6E0FC0D9FF10C0DAFF040EDF6E78
:10324A000FC0D9FF10C0DAFF000EDB8E010E176E19
:10325A0020EE01F00D50D9260E50DA22080EDF6E4C
:10326A0020EE02F00D50D9260E50DA22300EDE6E14
:10327A00040EDD6E0DC0D9FF0EC0DAFF800EDF6EC0
:10328A0047EF19F012001550D8A44EEF19F050EF7D
:10329A0019F0C0EF19F0010E156E1450D8A458EFAA
:1032AA0019F05AEF19F0C0EF19F0010E146E020E60
:1032BA001918D8A463EF19F065EF19F07CEF19F02B
:1032CA00000120EE01F07851D9267951DA22000E58
:1032DA00DF6E78C0D9FF79C0DAFF480EDF6E78C09A
:1032EA00D9FF79C0DAFF000EDB8EC0EF19F019049E
:1032FA00D8A482EF19F084EF19F0C0EF19F0000E8C
:10330A00176E20EE01F00F50D9261050DA22080E5F
:10331A00DF6E20EE02F00F50D9261050DA22300E5E
:10332A00DE6E040EDD6E0FC0D9FF10C0DAFF040E88
:10333A00DF6E0FC0D9FF10C0DAFF000EDB8E010E60
:10334A00176E20EE01F00D50D9260E50DA22080E23
:10335A00DF6E20EE02F00D50D9260E50DA22300E22
:10336A00DE6E040EDD6E0DC0D9FF0EC0DAFF800ED0
:10337A00DF6EC0EF19F012000001758F6B0EA96F96
:10338A000F0EAA6F000EAC6F000EAB6F000EAE6F81
:10339A00020EAD6FC9EC0AF0000E0001A96F040E0F
:1033AA00AA6F000EAC6F000EAB6F000EAE6F300E40
:1033BA00AD6FC9EC0AF0608C000E0001BD6F8D0E76
:1033CA00BD25D96EDA6A000EDA22000EDF6E8A0E89
:1033DA00BD25D96EDA6A000EDA22000EDF6EBD2B29
:1033EA00020EBD65FBEF19F0FDEF19F0E4EF19F0DD
:1033FA00A50EA96F000EAA6F000EAC6F000EAB6F80
:10340A00000EAE6F020EAD6FC9EC0AF0609C080E9A
:10341A000001786F040E796F000E0F6E040E106EA5
:10342A000FC00DF010C00EF032C4A8F0A851D8A4F5
:10343A0021EF1AF023EF1AF027EF1AF0100EA46FFB
:10344A0038EF1AF0000EB66F010EB56FA80EB76FFF
:10345A00000EB86F000EBA6F010EB96FD7EC1EF0EE
:10346A00200E0001A46F12000001758F6B0E2A6EE8
:10347A000F0E2B6E000E2D6E000E2C6E000E2F6E90
:10348A00020E2E6E40EC0CF0000E2A6E040E2B6E0D
:10349A00000E2D6E000E2C6E000E2F6E300E2E6E4C
:1034AA0040EC0CF0608C000E3E6E8D0E3E24D96E00
:1034BA00DA6A000EDA22000EDF6E8A0E3E24D96E18
:1034CA00DA6A000EDA22000EDF6E3E2A020E3E642F
:1034DA0071EF1AF073EF1AF05AEF1AF0A50E2A6E6E
:1034EA00000E2B6E000E2D6E000E2C6E000E2F6E2F
:1034FA00020E2E6E40EC0CF0609C080E0001786FF4
:10350A00040E796F000E0F6E040E106E0FC00DF0D0
:10351A0010C00EF032C4A8F0A851D8A497EF1AF040
:10352A0099EF1AF09DEF1AF0100EA46FAEEF1AF091
:10353A00000E376E010E366EA80E386E000E396E0A
:10354A00000E3B6E010E3A6E1CEC1FF0200E0001BD
:10355A00A46F12000001AB51AC11D8B4B7EF1AF046
:10356A00B9EF1AF0C2EF1AF0AB51AC11D8A4C0EF00
:10357A001AF0C2EF1AF0C7EF1AF0A95180EC23F043
:10358A0014EF1BF020EE04F0AB51D926AC51DA222D
:10359A00DE50DE10D8B4D4EF1AF0D6EF1AF0F1EFFD
:1035AA001AF020EE04F0AB51D926AC51DA2210EE13
:1035BA0002F0AB51E126AC51E222DE50E65CE65065
:1035CA00800AB16FDE50800AB159D8B0EFEF1AF015
:1035DA00F1EF1AF014EF1BF020EE02F0AB51D926EE
:1035EA00AC51DA22DECFADF0DDCFAEF0ABC0D9FF01
:1035FA00ACC0DAFFDECFAFF0DDCFB0F0AD51AF2512
:10360A00D96EAE51B021DA6EA9C0DFFF20EE02F00A
:10361A00AB51D926AC51DA22DE2A000EDD22120085
:10362A00000196A11BEF1BF01DEF1BF027EF1BF00B
:10363A00BBC0B2F0BCC0B3F0B9C0B4F0BAC0B5F008
:10364A0022EC22F00001BEBF2DEF1BF02FEF1BF082
:10365A0035EF1BF0BDC0C2F0BEC0C3F039EF1BF09E
:10366A00000EC36F000EC26F000EC16F000EC06F56
:10367A004CEF1BF0000EAA6F200EA96FB9C0ABF079
:10368A00BAC0ACF0AFEC1AF00001C04BC12BC2516A
:10369A00C05DC151800ABF6FC351800ABF59D8A00B
:1036AA0059EF1BF05BEF1BF03FEF1BF096B160EF99
:1036BA001BF062EF1BF06CEF1BF0BBC0B2F0BCC09A
:1036CA00B3F0B9C0B4F0BAC0B5F022EC22F0BBC076
:1036DA00A9F0BCC0AAF0CAEC22F00001C251A92587
:1036EA00B96FC351AA21BA6F12002D0E0001A16F42
:1036FA00A7C0C6F0FD0EC617D8A486EF1BF088EF48
:10370A001BF0CAEF1BF0A7C0C6F0D890C6333F0E15
:10371A00C617C651040D000EF3240F6E040EF420D2
:10372A00106E0FC00DF010C00EF0040E0D180D6EC5
:10373A000E500E6E0FC0D9FF10C0DAFFDF30E8322C
:10374A000F0B0D0AD8A4ACEF1BF0AEEF1BF0C6EFBF
:10375A001BF0300EA96F040EAA6F20EE02F00F5074
:10376A00D9261050DA22DECFABF0DDCFACF0000E56
:10377A00AE6F080EAD6F85EC21F046EC1EF0D6EF69
:10378A001BF060EC1FF0D6EF1BF0A751FD0B040AEB
:10379A00D8A4D2EF1BF0D4EF1BF0D6EF1BF0BCEC91
:1037AA0016F012002D0E0001A16FA7C047F0FD0E02
:1037BA004716D8A4E3EF1BF0E5EF1BF027EF1CF048
:1037CA00A7C047F0D89047323F0E47164750040D1E
:1037DA00000EF3240F6E040EF420106E0FC00DF0CD
:1037EA0010C00EF0040E0D180D6E0E500E6E0FC0A6
:1037FA00D9FF10C0DAFFDF30E8320F0B0D0AD8A468
:10380A0009EF1CF00BEF1CF023EF1CF0300E2A6EB0
:10381A00040E2B6E20EE02F00F50D9261050DA2239
:10382A00DECF2CF0DDCF2DF0000E2F6E080E2E6E9F
:10383A00AEEC21F08FEC1EF033EF1CF09AEC1FF087
:10384A0033EF1CF0A751FD0B040AD8A42FEF1CF08C
:10385A0031EF1CF033EF1CF0C8EC17F01200000E29
:10386A0000019E6F9A519B11D8B43EEF1CF040EFB5
:10387A001CF04BEF1CF09AC0D9FF9BC0DAFFDFBEE9
:10388A0049EF1CF04BEF1CF08DEF1CF020EE01F01D
:10389A009A51D9269B51DA22B651DE5CD8B058EF3C
:1038AA001CF05AEF1CF062EF1CF020EE01F09A5166
:1038BA00D9269B51DA22DF50B66F000E9E6F75EF44
:1038CA001CF0400E9E25D96EDA6A050EDA229E5148
:1038DA00B425E16E000EB521E26EDFCFE7FF9E2B25
:1038EA00B6519E5DD8A07CEF1CF07EEF1CF066EF0F
:1038FA001CF0000EA96F400EAA6F050EAB6F400EAA
:10390A00AC6F020E97EC11F0A9C09AF0AAC09BF016
:10391A0000019E511200000E136E000E126E020E6E
:10392A001918D8A49BEF1CF09DEF1CF0BDEF1CF0FA
:10393A0020EE01F00D50D9260E50DA22080EDF6E65
:10394A0020EE02F00D50D9260E50DA22380EDE6E25
:10395A00040EDD6E0DC0D9FF0EC0DAFF480EDF6E11
:10396A000DC0D9FF0EC0DAFF000EDB8EE9EF1CF0A6
:10397A00000176510401365D00017751040137597F
:10398A00D8B0CAEF1CF0CCEF1CF0D0EF1CF036C454
:10399A0076F037C477F025EC15F0000120EE02F03E
:1039AA007851D9267951DA22380EDE6E040EDD6E90
:1039BA0078C0D9FF79C0DAFF480EDF6E78C0D9FF28
:1039CA0079C0DAFF000EDB8E1200000E136E000EB5
:1039DA00126E020E1918D8A4F5EF1CF0F7EF1CF0BE
:1039EA0017EF1DF020EE01F00D50D9260E50DA2205
:1039FA00080EDF6E20EE02F00D50D9260E50DA22A4
:103A0A00380EDE6E040EDD6E0DC0D9FF0EC0DAFF71
:103A1A00480EDF6E0DC0D9FF0EC0DAFF000EDB8E36
:103A2A0043EF1DF0000176510401365D0001775124
:103A3A0004013759D8B024EF1DF026EF1DF02AEF04
:103A4A001DF036C476F037C477F0ADEC15F00001FE
:103A5A0020EE02F07851D9267951DA22380EDE6E3C
:103A6A00040EDD6E78C0D9FF79C0DAFF480EDF6E2A
:103A7A0078C0D9FF79C0DAFF000EDB8E1200000190
:103A8A00AE6F000E0001AF6F040EB06FA951AA6F9E
:103A9A00AB6BD890AA37AB37AE51AC6FAD6BD89041
:103AAA00AC37AD37D890AC37AD37AA51AC27AB514C
:103ABA00AD23D890AC37AD37D890AC37AD37AC51D1
:103ACA00AF27AD51B023AFC0D9FFB0C0DAFFDF9E38
:103ADA00A951D8A473EF1DF075EF1DF083EF1DF007
:103AEA00AE51020D7E0EF324D96E000EF420DA6E6A
:103AFA00AFC0DEFFB0C0DDFF8FEF1DF0AE51020D8B
:103B0A00780EF324D96E000EF420DA6EAFC0DEFF11
:103B1A00B0C0DDFFAFC0D9FFB0C0DAFFDF9C20EE36
:103B2A0004F0AF51D926B051DA22DF8C12002F6E81
:103B3A00000E306E040E316E2A502B6E2C6AD8900D
:103B4A002B362C362F502D6E2E6AD8902D362E36C7
:103B5A00D8902D362E362B502D262C502E22D8902A
:103B6A002D362E36D8902D362E362D5030262E5004
:103B7A00312230C0D9FF31C0DAFFDF9E2A50D8A4E3
:103B8A00C9EF1DF0CBEF1DF0D9EF1DF02F50020D3C
:103B9A007E0EF324D96E000EF420DA6E30C0DEFFFA
:103BAA0031C0DDFFE5EF1DF02F50020D780EF32432
:103BBA00D96E000EF420DA6E30C0DEFF31C0DDFFB0
:103BCA0030C0D9FF31C0DAFFDF9C20EE04F030505C
:103BDA00D9263150DA22DF8C12001F0E0001A465AB
:103BEA00F9EF1DF0FBEF1DF045EF1EF060A200EFAC
:103BFA001EF002EF1EF004EF1EF045EF1EF0400E1D
:103C0A00B46F010EB56F400EB66F34EC1CF00001B4
:103C1A00EE6F9F51D8A414EF1EF016EF1EF043EF7B
:103C2A001EF0EE51D8B41CEF1EF01EEF1EF037EF57
:103C3A001EF0000EDA6F010EDB6FAE0EDC6F080E9F
:103C4A00DD6F000EDF6F160EDE6F000EE16F300EB5
:103C5A00E06F5CEC21F0000E0001A96F010EAA6F63
:103C6A00D4EC1FF0020E0001ED6F380EEC6FAD0EB2
:103C7A00E82EFED7EC2FFCD7ED2FFAD7FCEC09F093
:103C8A001200000E1A6E000E166E000E136E000E53
:103C9A00126E000E176E000E196E78C0D9FF79C029
:103CAA00DAFF7F0EDF16040E00017819786F79515A
:103CBA00796F78C0D9FF79C0DAFF7F0EDF16040E5C
:103CCA007819786F7951796F0DC0D9FF0EC0DAFF74
:103CDA007F0EDF16000E756F000E776F000E766F7F
:103CEA00000E6D6F000E6F6F000E6E6F0BEC14F00E
:103CFA00000E0001B66F030EB56F000EB76F000E0F
:103D0A00B86F000EBA6F000EB96FD7EC1EF0F6EC62
:103D1A0010F01200000E1A6E000E166E000E136ED0
:103D2A00000E126E000E176E000E196E78C0D9FFC3
:103D3A0079C0DAFF7F0EDF16040E00017819786F5A
:103D4A007951796F78C0D9FF79C0DAFF7F0EDF1613
:103D5A00040E7819786F7951796F0DC0D9FF0EC0AA
:103D6A00DAFF7F0EDF16000E756F000E776F000EFA
:103D7A00766F000E6D6F000E6F6F000E6E6F78EC2F
:103D8A0013F0000E376E030E366E000E386E000EFC
:103D9A00396E000E3B6E000E3A6E1CEC1FF038ECCA
:103DAA0012F01200E1EF1EF00CEC20F01BEF1FF0F6
:103DBA004DEC18F01BEF1FF0B5C0BBF0B6C0BCF05D
:103DCA000001BC51000AD8B4F1EF1EF07F0AD8B442
:103DDA0014EF1FF01BEF1FF0BB51010AD8B4D9EF43
:103DEA001EF0030AD8B41BEF1FF0010AD8B4DDEFA6
:103DFA001EF0060AD8B41BEF1FF0770AD8B41BEFDF
:103E0A001FF0010AD8B41BEF1FF0070AD8B41BEF42
:103E1A001FF0010AD8B41BEF1FF01BEF1FF0BB51B4
:103E2A00FF0AD8B41BEF1FF01BEF1FF0120026EF9A
:103E3A001FF040EC20F05FEF1FF042EC17F05FEF4D
:103E4A001FF036C03CF037C03DF03D50000AD8B4F0
:103E5A0035EF1FF07F0AD8B458EF1FF05FEF1FF05D
:103E6A003C50010AD8B41EEF1FF0030AD8B45FEF22
:103E7A001FF0010AD8B422EF1FF0060AD8B45FEF88
:103E8A001FF0770AD8B45FEF1FF0010AD8B45FEFCA
:103E9A001FF0070AD8B45FEF1FF0010AD8B45FEF2A
:103EAA001FF05FEF1FF03C50FF0AD8B45FEF1FF01E
:103EBA005FEF1FF01200020E1918D8A467EF1FF067
:103ECA0069EF1FF06DEF1FF0B2EC0FF099EF1FF0E2
:103EDA00000E196E1750D8A475EF1FF077EF1FF078
:103EEA0097EF1FF020EE01F00D50D9260E50DA227E
:103EFA00080EDF6E20EE02F00D50D9260E50DA229F
:103F0A00300EDE6E040EDD6E0DC0D9FF0EC0DAFF74
:103F1A000C0EDF6E0DC0D9FF0EC0DAFF000EDB8E6D
:103F2A0099EF1FF0000E176E1200020E1918D8A48E
:103F3A00A1EF1FF0A3EF1FF0A7EF1FF054EC10F052
:103F4A00D3EF1FF0000E196E1750D8A4AFEF1FF071
:103F5A00B1EF1FF0D1EF1FF020EE01F00D50D9267E
:103F6A000E50DA22080EDF6E20EE02F00D50D9262E
:103F7A000E50DA22300EDE6E040EDD6E0DC0D9FF51
:103F8A000EC0DAFF0C0EDF6E0DC0D9FF0EC0DAFFCD
:103F9A00000EDB8ED3EF1FF0000E176E1200A394F3
:103FAA0000019F51D8B4DCEF1FF0DEEF1FF0E1EF04
:103FBA001FF0A3840BEF20F0000EAD6FA9C0ABF089
:103FCA00AAC0ACF0AD2BAD29D8A4EEEF1FF0F0EFEC
:103FDA001FF0F2EF1FF000EF20F0ABC0D9FFACC02A
:103FEA00DAFFAB4BAC2BDF50D8A4FEEF1FF000EF8B
:103FFA0020F0E7EF1FF0A9C087F0AAC088F0ADC093
:10400A009DF0000E9C6F010E9F6FA3841200000E9C
:10401A00236E4B0E246E000E256E000E266E000EC9
:10402A00276E000E286E080E296E000E00019E6F84
:10403A001A0EB16F010E32EC21F01E0E0001B16FA3
:10404A00020E32EC21F0000E0001A96F400EAA6F99
:10405A00050EAB6F400EAC6F020E97EC11F0A9C0C3
:10406A009AF0AAC09BF0000E0001986F000E996F9B
:10407A00000E9F6F1200000E236E4B0E246E000E70
:10408A00256E000E266E000E276E000E286E080E94
:10409A00296E000E00019E6F1A0E326E010EFCECA4
:1040AA0021F01E0E326E020EFCEC21F0000E2A6E7A
:1040BA00400E2B6E050E2C6E400E2D6E020ED9ECA4
:1040CA0012F02AC09AF02BC09BF0000E0001986FE4
:1040DA00000E996F000E9F6F1200D4C0D8F0D5C0A1
:1040EA00D9F0000E0001916F000E906F90EF20F052
:1040FA00D2C0C9F0D3C0CAF0D80ECB6F000ECC6FB5
:10410A00D6C0CDF0D7C0CEF0B5EC0DF00001C95144
:10411A009027CA519123D8C0F6FFD9C0F7FF0800EB
:10412A00F5500009D8A49CEF20F09EEF20F07DEF17
:10413A0020F090C0D2F091C0D3F012006AA0A8EF8C
:10414A0020F0AAEF20F0D1EF20F00FC0D9FF10C065
:10415A00DAFF800EDE18D8A4B5EF20F0B7EF20F012
:10416A00D0EF20F078C0D9FF79C0DAFF840EDE18CC
:10417A00D8A4C2EF20F0C4EF20F0D0EF20F00FC097
:10418A00D9FF10C0DAFF0C0EDF6E0FC0D9FF10C0C6
:10419A00DAFF000EDB8E6A90659A12006AA0D8EFE9
:1041AA0020F0DAEF20F001EF21F00FC0D9FF10C0A4
:1041BA00DAFF800EDE18D8A4E5EF20F0E7EF20F052
:1041CA0000EF21F078C0D9FF79C0DAFF840EDE183B
:1041DA00D8A4F2EF20F0F4EF20F000EF21F00FC0A6
:1041EA00D9FF10C0DAFF0C0EDF6E0FC0D9FF10C066
:1041FA00DAFF000EDB8E6A90659A12000001925176
:10420A009311D8A40BEF21F00DEF21F013EF21F059
:10421A0092C0C7F093C0C8F019EF21F0FF0E9225A3
:10422A00C76FFF0E9321C86FC6C080F1000E01014F
:10423A00816FC4C0B9F0C5C0BAF0800E0001BB6F6F
:10424A00010EBC6FC7C0BDF0C8C0BEF015EC1BF0B4
:10425A00B9C0C4F0BAC0C5F012000001B46F0001C1
:10426A00B1A53AEF21F03CEF21F041EF21F0000E29
:10427A00A96FB45144EC1DF00001B1A347EF21F03E
:10428A0049EF21F04EEF21F0010EA96FB45144EC31
:10429A001DF06A0E0001B425B26FB36B0F0EB32383
:1042AA00B2C0D9FFB3C0DAFFB1C0DFFF1200DE0E21
:1042BA000001E46F000EE56FDAC0E6F0DBC0E7F05C
:1042CA00000EE96F000EE86F000EEB6F000EEA6F4A
:1042DA00E60ED26F000ED36FDCC0D4F0DDC0D5F08D
:1042EA00E40ED66F000ED76F72EC20F00001E85191
:1042FA00DA25D96EE951DB21DA6E000EDF6E120083
:10430A00ABC0B2F0ACC0B3F0A9C0B0F0AAC0B1F073
:10431A009FEF21F0B2C0D9FFB3C0DAFFDF50AF6F11
:10432A00B24BB32BB0C0D9FFB1C0DAFFAFC0DFFFC9
:10433A00B04BB12B0001AD07D8A0AE07AD2906E1FD
:10434A00AE29D8A4ABEF21F0ADEF21F08FEF21F029
:10435A0012002CC032F02DC033F02AC030F02BC02E
:10436A0031F0C8EF21F032C0D9FF33C0DAFFDF5095
:10437A00346E324A332A30C0D9FF31C0DAFF34C032
:10438A00DFFF304A312A2E06D8A02F062E2806E152
:10439A002F28D8A4D3EF21F0D5EF21F0B8EF21F0E0
:1043AA00120072EC23F0060ED56EE50ED66E480E9C
:1043BA00D76ED58EF294E3EC08F0F2EC1DF0F2A47D
:1043CA00E9EF21F0EBEF21F0E0EF21F08BA0F0EF25
:1043DA0021F0F3EF21F08B80F4EF21F08B90E50EC2
:1043EA00D66E480ED76EDFEF21F03FEF00F0356E44
:1043FA0032A402EF22F004EF22F009EF22F0000EBD
:10440A002A6E35509CEC1DF032A20EEF22F010EF0E
:10441A0022F015EF22F0010E2A6E35509CEC1DF0A9
:10442A006A0E3524336E346A0F0E342233C0D9FF34
:10443A0034C0DAFF32C0DFFF1200000E0001B86F8D
:10444A00000EB76F35EF22F0B6C0A9F0AA6BB4C060
:10445A00ABF0B5C0ACF0AFEC1AF00001B74BB82B1B
:10446A00B751B225D96EB851B321DA6EDF50B66FA3
:10447A00B651D8A443EF22F045EF22F029EF22F0FB
:10448A0012000001A451D8A44DEF22F04FEF22F000
:10449A0068EF22F0000E606E000E646E160E626EF9
:1044AA009F0E666E7B0E646EA584A3845EEF22F077
:1044BA00608660A663EF22F065EF22F05DEF22F0DE
:1044CA00010E0001A46F1200000E0001A36F000E7E
:1044DA00B66F740EB56F000EB76F000EB86F000E90
:1044EA00BA6F000EB96FD7EC1EF0609264947FEF3A
:1044FA0022F0659465B484EF22F086EF22F07EEF15
:10450A0022F0000E0001A06F1200000E0001A36F3E
:10451A00000E376E740E366E000E386E000E396E4F
:10452A00000E3B6E000E3A6E1CEC1FF06092649413
:10453A00A0EF22F0659465B4A5EF22F0A7EF22F070
:10454A009FEF22F0000E0001A06F1200000E8D6E88
:10455A00000E8C6E000E896E000E8A6E000E8B6E37
:10456A00070E966E92689368C00E946E95680F0156
:10457A005E69C40E5D6F3F0E5C6F070E5F6F2F0E94
:10458A005B6F000E856EF18E1200A9C0ABF0AAC057
:10459A00ACF0D3EF22F00001A94BAA2BA9C0D9FF96
:1045AA00AAC0DAFFDF50D8A4DDEF22F0DFEF22F055
:1045BA00D0EF22F00001AB51A95DA96FAC51AA5905
:1045CA00AA6F1200010E0526000E062207220822F3
:1045DA000001A351D8A4F4EF22F0F6EF22F000EF85
:1045EA0023F0A02BA051D8A4FDEF22F0FFEF22F078
:1045FA0000EF23F0A0691200010E0526000E062224
:10460A00072208220001A351D8A40EEF23F010EFCD
:10461A0023F01AEF23F0A02BA051D8A417EF23F010
:10462A0019EF23F01AEF23F0A069120001EE00F04F
:10463A00A00EEE6AE806FDE100EE60F0490EEE6AB1
:10464A00E806FDE100EE01F0290EEE6AE806FDE15A
:10465A0053905392000EF86E0001D6EF21F0648455
:10466A0065986082010E0001A36F000EA06F000E14
:10467A00B66F750EB56F000EB76F000EB86F000EED
:10468A00BA6F000EB96FD7EC1EF0120064846598F9
:10469A006082010E0001A36F000EA06F000E376E3C
:1046AA00750E366E000E386E000E396E000E3B6EB9
:1046BA00000E3A6E1CEC1FF01200700ED36E100E34
:1046CA00D26E800E9B6E100EB56ED2AE6FEF23F0D7
:1046DA0071EF23F06AEF23F012007DEC23F0ABECCC
:1046EA0022F062EC23F066EC0EF046EC22F01200A7
:0846FA00D08EA584120012000D
:020000040020DA
:08000000FFFFFFFFFFFFFFFF00
:020000040030CA
:0E00000021285F3CFFD181FF0FC00FE00F40B1
:00000001FF
