:0400000040EF00F0DD
:100008005282E1CF20F0E2CF21F0D9CF22F0DACF2F
:1000180023F0F3CF24F0F4CF25F0F6CF26F0F7CF76
:1000280027F0F8CF28F0F5CF29F0A3A41EEF00F0B1
:1000380020EF00F02AEF00F0A4A425EF00F027EF4E
:1000480000F02AEF00F00BEC06F0A49429C0F5FFAD
:1000580028C0F8FF27C0F7FF26C0F6FF25C0F4FF29
:1000680024C0F3FF23C0DAFF22C0D9FF21C0E2FF7A
:0C00780020C0E1FF52921100D6EF17F0FB
:1008000000AA084C088008090809024300020100F8
:10081000C032090400000102020100052400100199
:100820000424020205240600010524010001070535
:1008300081030A000209040100020A000000070502
:1008400002024000000705820240000034034D0010
:100850006900630072006F00630068006900700047
:10086000200054006500630068006E006F006C009B
:100870006F0067007900200049006E0063002E00C1
:10088000180350004900430031003800460034008E
:1008900035004B0035003000120100020200000854
:1008A000D8040A00000101020001040309047425B0
:0908B0006320682563200A0000A2
:1008BA0004013205D8A464EF04F066EF04F082EF75
:1008CA0004F030511F0B0009D8A46EEF04F070EF4A
:1008DA0004F082EF04F00001758F030E0401311950
:1008EA00D8A47AEF04F07CEF04F080EF04F0010E54
:1008FA00436E82EF04F0000E436E3251D8A488EFA3
:10090A0004F08AEF04F00AEF06F030511F0B020AD6
:10091A00D8A492EF04F094EF04F00AEF06F03451F1
:10092A000F0B0009D8B49CEF04F09EEF04F00AEF15
:10093A0006F034510F0B156E030E1560A7EF04F085
:10094A00A9EF04F00AEF06F0200E4618D8A4B0EF7B
:10095A0004F0B2EF04F00AEF06F00001758F04010B
:10096A0034BFBAEF04F0BCEF04F0D9EF04F034510D
:10097A000F0B156E1550020D7E0EF324D96E000E64
:10098A00F420DA6EDECF1AF0DDCF1BF034510F0BF4
:10099A00156E166A8A0E1524D96E000E1620DA6EA6
:1009AA00DF50196EF4EF04F034510F0B156E155029
:1009BA00020D780EF324D96E000EF420DA6EDECF23
:1009CA001AF0DDCF1BF034510F0B156E166A8D0E1F
:1009DA001524D96E000E1620DA6EDF50196E19B082
:1009EA00F9EF04F0FBEF04F003EF05F0FB0E1A1425
:1009FA001A6EFF0E1B141B6E08EF05F0040E1A1078
:100A0A001A6E1B501B6E34BF0DEF05F00FEF05F089
:100A1A0020EF05F034510F0B156E1550020D7E0EA6
:100A2A00F324D96E000EF420DA6E1AC0DEFF1BC062
:100A3A00DDFF2FEF05F034510F0B156E1550020D27
:100A4A00780EF324D96E000EF420DA6E1AC0DEFF97
:100A5A001BC0DDFF030E3119D8A436EF05F038EFBD
:100A6A0005F072EF05F01AC0D9FF1BC0DAFFDFAE3E
:100A7A0041EF05F043EF05F064EF05F034BF48EFAE
:100A8A0005F04AEF05F058EF05F034510F0B156EDB
:100A9A00166A8A0E1524D96E000E1620DA6E000127
:100AAA00DF8264EF05F034510F0B156E166A8D0E56
:100ABA001524D96E000E1620DA6E0001DF821AC0E4
:100ACA00D9FF1BC0DAFF000EDB841AC0D9FF1BC096
:100ADA00DAFF000EDB8E0AEF06F0040E1A181A6E01
:100AEA001B501B6E1AC0D9FF1BC0DAFFDFAE80EFA6
:100AFA0005F082EF05F09EEF05F01AC0D9FF1BC082
:100B0A00DAFF7F0EDF161AC0D9FF1BC0DAFF000E0C
:100B1A00DB8C000E0E6E050E0D6E1AC00FF01BC098
:100B2A0010F0000E126E020E116E07EC15F0A4EF13
:100B3A0005F01AC0D9FF1BC0DAFF000EDB8C040EC9
:100B4A001A181A6E1B501B6E19B2AEEF05F0B0EFF1
:100B5A0005F0BBEF05F01AC0D9FF1BC0DAFFDFAE04
:100B6A00B9EF05F0BBEF05F0F3EF05F0040134BF70
:100B7A00C1EF05F0C3EF05F0D1EF05F034510F0BCB
:100B8A00156E166A8A0E1524D96E000E1620DA6EB4
:100B9A000001DF92DDEF05F034510F0B156E166A76
:100BAA008D0E1524D96E000E1620DA6E0001DF9222
:100BBA001AC0D9FF1BC0DAFF3B0EDF16000E0E6EFD
:100BCA00050E0D6E1AC00FF01BC010F0000E126E4B
:100BDA00020E116E07EC15F0F9EF05F01AC0D9FFF5
:100BEA001BC0DAFF3B0EDF16040134510F0B156EE2
:100BFA00166A6A0E1524176E0F0E1620186E17C085
:100C0A00D9FF18C0DAFFFE0EDF1612004604D8A478
:100C1A0011EF06F013EF06F020EF06F060BA18EFB6
:100C2A0006F01AEF06F020EF06F0000E656E6480FB
:100C3A006488020E466E65A425EF06F027EF06F0DB
:100C4A0031EF06F064A42CEF06F02EEF06F031EF38
:100C5A0006F065945FEC17F060A236EF06F038EF05
:100C6A0006F03BEF06F0A4941EEF07F065A040EFF4
:100C7A0006F042EF06F04FEF06F064A047EF06F0E9
:100C8A0049EF06F04FEF06F074EC0BF0A384040E64
:100C9A00466E659065A854EF06F056EF06F05FEFD2
:100CAA0006F064A85BEF06F05DEF06F05FEF06F072
:100CBA00EFEC17F065AC64EF06F066EF06F091EF23
:100CCA0006F064AC6BEF06F06DEF06F07BEF06F012
:100CDA00000E0E6E730E0D6E000E0F6E000E106E6D
:100CEA00000E126E010E116E07EC15F0659CBCEC3D
:100CFA0017F04050D8B484EF06F086EF06F087EF7D
:100D0A0006F040064050D8A48DEF06F08FEF06F0AB
:100D1A0091EF06F04AEC11F065AA96EF06F098EF0B
:100D2A0006F0A1EF06F064AA9DEF06F09FEF06F029
:100D3A00A1EF06F020EC16F065A2A6EF06F0A8EFE8
:100D4A0006F0BEEF06F064A2ADEF06F0AFEF06F0D4
:100D5A00BEEF06F07F0E0E6E0D68000E0F6E000ECF
:100D6A00106E000E126E010E116E07EC15F0000ED9
:100D7A00676E040E4660C4EF06F0C6EF06F0C9EFD0
:100D8A0006F0A4941EEF07F064A6CEEF06F0D0EFAB
:100D9A0006F01DEF07F0000E1F6E65A6D7EF06F0EE
:100DAA00D9EF06F01DEF07F061CF50F05030E8326E
:100DBA00E8320F0B426E659650B4E6EF06F0E8EFA4
:100DCA0006F0F2EF06F08A0E4224D96EDA6A000EB5
:100DDA00DA220001DF70FAEF06F08D0E4224D96E96
:100DEA00DA6A000EDA220001DF704250D8A400EF5E
:100DFA0007F002EF07F006EF07F05FEC13F014EFCD
:100E0A0007F0000E0E6E720E0D6E500E0F6E000E73
:100E1A00106E000E126E000E116E07EC15F01F2AEE
:100E2A00030E1F641BEF07F01DEF07F0D2EF06F069
:100E3A00A4941200A394000198519911D8B428EFF0
:100E4A0007F02AEF07F038EF07F098C0D9FF99C0EA
:100E5A00DAFFDFAE33EF07F035EF07F038EF07F0D0
:100E6A00A384EBEF07F0030E9F19D8A43FEF07F016
:100E7A0041EF07F043EF07F0000E9F6F9F51D8A490
:100E8A0049EF07F04BEF07F04EEF07F0A384EBEFC3
:100E9A0007F0020E9F19D8A455EF07F057EF07F095
:100EAA006BEF07F0010EAA6F000EAB6F000EAC6F6E
:100EBA00000EAD6F020EBCEC0CF0AAC098F0ABC0ED
:100ECA0099F0030E00019F6FEAEF07F09F05D8A47F
:100EDA0071EF07F073EF07F0EAEF07F0400E9D6538
:100EEA0079EF07F07BEF07F07FEF07F0400EB66F60
:100EFA0081EF07F09DC0B6F0B6519D5D9D6F000E63
:100F0A00846F050E856FB6C0B5F09C51D8A490EFDA
:100F1A0007F092EF07F0BCEF07F0A3EF07F087C0E6
:100F2A00D9FF88C0DAFF84C0E1FF85C0E2FFDFCFC6
:100F3A00E7FF844B852B874B882BB507B551D8A47F
:100F4A00A9EF07F0ABEF07F094EF07F0C4EF07F053
:100F5A0087C0D9FF88C0DAFF84C0E1FF85C0E2FFFD
:100F6A00DFCFE7FF844B852B874B882BB507B5511D
:100F7A00D8A4C2EF07F0C4EF07F0ADEF07F09D5118
:100F8A00D8A4CAEF07F0CCEF07F0DBEF07F0400E6A
:100F9A00B619D8A4D3EF07F0D5EF07F0D9EF07F0C9
:100FAA00020E9F6FDBEF07F0030E9F6F010EAA6F11
:100FBA00000EAB6F050EAC6FB6C0ADF0020EBCEC06
:100FCA000CF0AAC098F0ABC099F0A3841200AAC092
:100FDA00B4F0ABC0B5F00001AE51AF11D8A4F8EF30
:100FEA0007F0FAEF07F0FCEF07F0A7EF08F0B4C03C
:100FFA00D9FFB5C0DAFFACC0DFFFAE51B425B06F80
:10100A00AF51B521B16FFF0EB025D96EFF0EB121D8
:10101A00DA6EACC0DFFFAF5107E1030EAE5DD8B0A8
:10102A0019EF08F01BEF08F01DEF08F0A7EF08F022
:10103A0020EE01F0B451D926B551DA22ACC0DFFF57
:10104A0020EE02F0B451D926B551DA22ACC0DFFF46
:10105A00AE51B425B06FAF51B521B16FFE0EB025B8
:10106A00D96EFF0EB121DA6EACC0DFFFAE51B425E6
:10107A00B06FAF51B521B16FFD0EB025D96EFF0E1D
:10108A00B121DA6EACC0DFFFAF5107E1070EAE5DEA
:10109A00D8B052EF08F054EF08F056EF08F0A7EF77
:1010AA0008F020EE03F0B451D926B551DA22ACC0CB
:1010BA00DFFFAE51B425B06FAF51B521B16FFC0E51
:1010CA00B025D96EFF0EB121DA6EACC0DFFFAF5189
:1010DA0007E1090EAE5DD8B075EF08F077EF08F0BA
:1010EA0079EF08F0A7EF08F0B4C0B0F0B5C0B1F0DE
:1010FA00B01FB11FB04BB12B030EB015B26FB36B5B
:10110A00B251B427B351B523B251AE5FB351AF5BFD
:10111A00FC0EAE17FF0EAF179EEF08F0B4C0D9FF52
:10112A00B5C0DAFFACC0DFFFAE07D8A0AF07B44B3B
:10113A00B52BAE51AF11D8A4A5EF08F0A7EF08F070
:10114A0093EF08F0120001C00BF002C00CF005503A
:10115A000610D8A4B3EF08F0B5EF08F0B7EF08F01F
:10116A0062EF09F00BC0D9FF0CC0DAFF03C0DFFF42
:10117A0005500B24076E06500C20086EFF0E07243C
:10118A00D96EFF0E0820DA6E03C0DFFF065007E1B2
:10119A00030E055CD8B0D4EF08F0D6EF08F0D8EF0C
:1011AA0008F062EF09F020EE01F00B50D9260C503E
:1011BA00DA2203C0DFFF20EE02F00B50D9260C50D2
:1011CA00DA2203C0DFFF05500B24076E06500C20FD
:1011DA00086EFE0E0724D96EFF0E0820DA6E03C0D1
:1011EA00DFFF05500B24076E06500C20086EFD0E1B
:1011FA000724D96EFF0E0820DA6E03C0DFFF0650FF
:10120A0007E1070E055CD8B00DEF09F00FEF09F002
:10121A0011EF09F062EF09F020EE03F00B50D92626
:10122A000C50DA2203C0DFFF05500B24076E06506C
:10123A000C20086EFC0E0724D96EFF0E0820DA6E09
:10124A0003C0DFFF065007E1090E055CD8B030EF96
:10125A0009F032EF09F034EF09F062EF09F00BC040
:10126A0007F00CC008F0071E081E074A082A030EDA
:10127A000714096E0A6A09500B260A500C220950F3
:10128A00055E0A50065AFC0E0516FF0E061659EFA1
:10129A0009F00BC0D9FF0CC0DAFF03C0DFFF050657
:1012AA00D8A006060B4A0C2A05500610D8A460EFEF
:1012BA0009F062EF09F04EEF09F01200800E040106
:1012CA003019D8A46BEF09F06DEF09F01CEF0AF0A2
:1012DA00C00E0001756F02EF0AF0980E0001726FDE
:1012EA00080E736F000E776F120E766F1CEF0AF0FE
:1012FA003251D8A483EF09F085EF09F0C6EF09F05F
:10130A003251020D070EF324F66E080EF420F76E22
:10131A000900F5CF72F00A00F5CF73F0020E000152
:10132A007225016E000E7321026E01C0F6FF02C023
:10133A00F7FFF86A070EF76403D00800F55005D0E6
:10134A00F6CFE1FFF7CFE2FFE7500001766F030E19
:10135A007225016E000E7321026E01C0F6FF02C0F3
:10136A00F7FFF86A070EF76403D00800F55005D0B6
:10137A00F6CFE1FFF7CFE2FFE7500001776F1CEFEE
:10138A000AF0000E0001756F1CEF0AF0030E3261BD
:10139A00D1EF09F0D3EF09F0F8EF09F03251020D5D
:1013AA00010EF324F66E080EF420F76E0900F5CF4D
:1013BA0072F00A00F5CF73F072C0F6FF73C0F7FF40
:1013CA00F86A070EF76403D00800F55005D0F6CF87
:1013DA00E1FFF7CFE2FFE750016E01500001766F9F
:1013EA00776B1CEF0AF0000E0001756F1CEF0AF014
:1013FA00000E0001756F1CEF0AF004013351016EF3
:10140A00026A0250000AD8B40DEF0AF0FDEF09F0A3
:10141A000150010AD8B472EF09F0030AD8B47DEF7B
:10142A0009F0010AD8B4CBEF09F0FDEF09F0120078
:10143A00CCC0D9FFCDC0DAFFDECFF6FFDDCFF7FF94
:10144A000800F550250AD8A42DEF0AF02FEF0AF06C
:10145A00B1EF0AF0CCC0D9FFCDC0DAFFDE2A000E08
:10146A00DD22000E0001936F000E926F92C096F07B
:10147A0093C097F094699569CCC0D9FFCDC0DAFFC3
:10148A00DECFF6FFDDCFF7FF0800F550630AD8A4D8
:10149A0051EF0AF053EF0AF07AEF0AF0CCC0D9FF05
:1014AA00CDC0DAFFDE2A000EDD22CEC0D9FFCFC0C2
:1014BA00DAFFDFCFD0F0020EDE26DFCFD1F0000E4A
:1014CA00DD22D0C0D9FFD1C0DAFFDF50D26FCAC047
:1014DA00C5F0CBC0C6F0D2C0C7F050EC16F0C5C0FC
:1014EA00CAF0C6C0CBF0CDEF0AF0CCC0D9FFCDC050
:1014FA00DAFFDECFF6FFDDCFF7FF0800F550250A49
:10150A00D8A48AEF0AF08CEF0AF0A4EF0AF0CCC054
:10151A00D9FFCDC0DAFFDE2A000EDD22000EAB6F46
:10152A00250EAA6FCAC0ACF0CBC0ADF038EC12F0F1
:10153A00000E0001CB6F010ECA6FCDEF0AF0CCC0CE
:10154A00D9FFCDC0DAFFDE2A000EDD22000ECB6FF6
:10155A00000ECA6FCDEF0AF0CCC0D9FFCDC0DAFFBA
:10156A00DECFF6FFDDCFF7FF0800F5500001AA6FC6
:10157A00AB6BCAC0ACF0CBC0ADF038EC12F0CCC04B
:10158A00D9FFCDC0DAFFDE2A000EDD229DEF0AF078
:10159A001200A394000E676E000E656E000E6A6E4E
:1015AA006B0E0001AA6F0F0EAB6F000EAD6F000E2F
:1015BA00AC6F000EAF6F020EAE6FECEC07F0160EBA
:1015CA00626E9F0E666E7B0E646E000E0001B66F31
:1015DA00B651040D000EF324D96E040EF420DA6E0F
:1015EA00DE6ADE6ADE6ADD6AB62B0B0EB66500EFCE
:1015FA000BF002EF0BF0EDEF0AF0608C000E636E59
:10160A006098609C6596000E756F000E6D6F000EF7
:10161A006F6F000E6E6F65B615EF0BF017EF0BF0DC
:10162A0007EF0BF0010E3E6E010E3D6E000E3C6E92
:10163A00000E3B6E000EA16F000EB66FB651020D82
:10164A00780EF324D96E000EF420DA6E000EDE6EE8
:10165A00000EDD6EB651020D7E0EF324D96E000E19
:10166A00F420DA6E000EDE6E000EDD6E8D0EB625EB
:10167A00D96EDA6A000EDA22000EDF6E8A0EB625FD
:10168A00D96EDA6A000EDA22000EDF6EB62B020E6F
:10169A00B66552EF0BF054EF0BF023EF0BF0080E88
:1016AA00786F040E796F160E6A6E040E0401036FCA
:1016BA00300E026F080E016F040E006F008F000ECD
:1016CA00516E000E2E6E000E2F6E000E306E000E42
:1016DA00316E000E0001A06F000E466E1200A39438
:1016EA00000E676E000E656E000E6A6E6B0E016E5E
:1016FA000F0E026E000E046E000E036E000E066ED2
:10170A00020E056EA8EC08F0160E626E9F0E666E4B
:10171A007B0E646E000E0D6E0D50040D000EF32448
:10172A00D96E040EF420DA6EDE6ADE6ADE6ADD6ADB
:10173A000D2A0B0E0D64A4EF0BF0A6EF0BF091EF40
:10174A000BF0608C000E636E6098609C6596000ECC
:10175A000001756F000E6D6F000E6F6F000E6E6FD9
:10176A0065B6BAEF0BF0BCEF0BF0ABEF0BF0010E66
:10177A003E6E010E3D6E000E3C6E000E3B6E000E7C
:10178A00A16F000E0D6E0D50020D780EF324D96E66
:10179A00000EF420DA6E000EDE6E000EDD6E0D50C5
:1017AA00020D7E0EF324D96E000EF420DA6E000EBE
:1017BA00DE6E000EDD6E8D0E0D24D96EDA6A000E15
:1017CA00DA22000EDF6E8A0E0D24D96EDA6A000E56
:1017DA00DA22000EDF6E0D2A020E0D64F7EF0BF00F
:1017EA00F9EF0BF0C8EF0BF0080E0001786F040E4A
:1017FA00796F160E6A6E040E0401036F300E026FC3
:10180A00080E016F040E006F008F000E516E000E5D
:10181A002E6E000E2F6E000E306E000E316E000E10
:10182A000001A06F000E466E120020EE01F0385043
:10183A00D9263950DA22DF50026E025000016E5D5D
:10184A00000E6F59D8B02CEF0CF02EEF0CF030EFE1
:10185A000CF06EC002F002506E5F000E6F5B000E5D
:10186A00016E47EF0CF0380E0124D96EDA6A040EC5
:10187A00DA226AC0E1FF6BC0E2FFDFCFE7FF6A4B03
:10188A006B2B012A0250015CD8A04EEF0CF050EFEE
:10189A000CF038EF0CF06E516F11D8B457EF0CF012
:1018AA0059EF0CF092EF0CF020EE01F03650D926E9
:1018BA003750DA22080EDF6E20EE02F03650D926B3
:1018CA003750DA22380EDE6E040EDD6E38C0D9FFCC
:1018DA0039C0DAFFDFBC74EF0CF076EF0CF084EF5E
:1018EA000CF036C0D9FF37C0DAFF480EDF6E36C0BB
:1018FA00D9FF37C0DAFF000EDB8EBBEF0CF036C023
:10190A00D9FF37C0DAFF080EDF6E36C0D9FF37C0FD
:10191A00DAFF000EDB8EBBEF0CF020EE01F0365042
:10192A00D9263750DA22080EDF6E20EE02F0365042
:10193A00D9263750DA22300EDE6E040EDD6E36C03E
:10194A00D9FF37C0DAFF040EDF6E36C0D9FF37C0C1
:10195A00DAFF000EDB8E6D9F3F50D8A4B7EF0CF074
:10196A00B9EF0CF0BBEF0CF04AEC11F012000001D9
:10197A00B26F0001AA51D8B4C5EF0CF0C7EF0CF052
:10198A00D5EF0CF0B251020D780EF324D96E000E89
:10199A00F420DA6EDECFB3F0DDCFB4F0E1EF0CF075
:1019AA00B251020D7E0EF324D96E000EF420DA6EC7
:1019BA00DECFB3F0DDCFB4F0B351B411D8A4E8EF61
:1019CA000CF0EAEF0CF0F0EF0CF0000EAA6F000E2C
:1019DA00AB6F5CEF0DF020EE02F0B351D926B45193
:1019EA00DA22ABC0DEFFACC0DDFF20EE01F0B3515E
:1019FA00D926B451DA22ADC0DFFFB3C0D9FFB4C0D3
:101A0A00DAFF400EDF16B3C0D9FFB4C0DAFF000E0A
:101A1A00DB86B3C0D9FFB4C0DAFF000EDB8EAA5151
:101A2A00D8B41AEF0DF01CEF0DF03BEF0DF0B251E8
:101A3A00020D780EF324D96E000EF420DA6EDECF92
:101A4A00AEF0DDCFAFF0040EAE19B06FAF51B16F8B
:101A5A00B251020D780EF324D96E000EF420DA6E1C
:101A6A00B0C0DEFFB1C0DDFF58EF0DF0B251020D7C
:101A7A007E0EF324D96E000EF420DA6EDECFAEF0BD
:101A8A00DDCFAFF0040EAE19B06FAF51B16FB251E6
:101A9A00020D7E0EF324D96E000EF420DA6EB0C069
:101AAA00DEFFB1C0DDFFB3C0AAF0B4C0ABF01200D4
:101ABA006098000175BF64EF0DF066EF0DF0ABEFB3
:101ACA000DF06DAF6BEF0DF06DEF0DF07FEF0DF0D8
:101ADA00020E446E3B50D8A475EF0DF077EF0DF06F
:101AEA0079EF0DF0BBEC13F0000E3D6E000E3E6E6A
:101AFA00FDEF0DF020EE01F03650D9263750DA22EC
:101B0A00080EDF6E20EE02F03650D9263750DA2260
:101B1A00300EDE6E040EDD6E36C0D9FF37C0DAFF36
:101B2A000C0EDF6E36C0D9FF37C0DAFF000EDB8E2F
:101B3A0078C0D9FF79C0DAFF040EDF6E78C0D9FF0A
:101B4A0079C0DAFF000EDB8EFDEF0DF0040130AF35
:101B5A00B1EF0DF0B3EF0DF0CFEF0DF0010E446EC3
:101B6A003C50D8A4BBEF0DF0BDEF0DF0BFEF0DF068
:101B7A00BBEC13F0000E3D6E000E3E6E3F50D8A433
:101B8A00C9EF0DF0CBEF0DF0FDEF0DF04AEC11F0BF
:101B9A00FDEF0DF0020E446E20EE01F03650D9260C
:101BAA003750DA22080EDF6E20EE02F03650D926C0
:101BBA003750DA22300EDE6E040EDD6E36C0D9FFE3
:101BCA0037C0DAFF040EDF6E36C0D9FF37C0DAFF3E
:101BDA00000EDB8E000E3D6E000E3E6E3F50D8A406
:101BEA00F9EF0DF0FBEF0DF0FDEF0DF0CBEF0DF07F
:101BFA001200096E0150D8B405EF0EF007EF0EF08F
:101C0A0015EF0EF00950020D780EF324D96E000E6E
:101C1A00F420DA6EDECF0AF0DDCF0BF021EF0EF002
:101C2A000950020D7E0EF324D96E000EF420DA6EEE
:101C3A00DECF0AF0DDCF0BF00A500B10D8A428EF44
:101C4A000EF02AEF0EF030EF0EF0000E016E000ECD
:101C5A00026E9CEF0EF020EE02F00A50D9260B50CD
:101C6A00DA2202C0DEFF03C0DDFF20EE01F00A50D7
:101C7A00D9260B50DA2204C0DFFF0AC0D9FF0BC0F5
:101C8A00DAFF400EDF160AC0D9FF0BC0DAFF000EDA
:101C9A00DB860AC0D9FF0BC0DAFF000EDB8E0150CB
:101CAA00D8B45AEF0EF05CEF0EF07BEF0EF009504D
:101CBA00020D780EF324D96E000EF420DA6EDECF10
:101CCA0005F0DDCF06F0040E0518076E0650086E03
:101CDA000950020D780EF324D96E000EF420DA6E44
:101CEA0007C0DEFF08C0DDFF98EF0EF00950020DB5
:101CFA007E0EF324D96E000EF420DA6EDECF05F0E4
:101D0A00DDCF06F0040E0518076E0650086E09505E
:101D1A00020D7E0EF324D96E000EF420DA6E07C08F
:101D2A00DEFF08C0DDFF0AC001F00BC002F012009E
:101D3A0004013039E832030B0009D8B4A7EF0EF0DA
:101D4A00A9EF0EF0F6EF0EF02FEF0FF00001758FEE
:101D5A00080E466E2FEF0FF063EC09F02FEF0FF02D
:101D6A00C3EC11F02FEF0FF0510E0001726F000E4D
:101D7A00736F7581010E766F758F2FEF0FF0B8ECC8
:101D8A000FF02FEF0FF05DEC04F02FEF0FF04E0E77
:101D9A0034250001726F736B000E73237581010E77
:101DAA00766F758F2FEF0FF00001758F4E0E0401BD
:101DBA003425D96EDA6A000EDA2232C4DFFF2FEF39
:101DCA000FF0000E0E6E020E0D6E000E0F6E000E5C
:101DDA00106E000E126E000E116E07EC15F02FEF4A
:101DEA000FF031511C6E1D6A1D50000AD8B400EF65
:101DFA000FF02FEF0FF01C50000AD8B4C4EF0EF00A
:101E0A00010AD8B4C8EF0EF0020AD8B4C8EF0EF02F
:101E1A00060AD8B4ABEF0EF0030AD8B4B1EF0EF04D
:101E2A00010AD8B4E6EF0EF00F0AD8B4B9EF0EF0F3
:101E3A00010AD8B4B5EF0EF0030AD8B4CCEF0EF00D
:101E4A00010AD8B4D9EF0EF0070AD8B42FEF0FF071
:101E5A002FEF0FF01200080E016E0001775107E113
:101E6A00080E765DD8B03CEF0FF03EEF0FF056EF5C
:101E7A000FF076C001F04550D8A446EF0FF048EFB6
:101E8A000FF04CEF0FF0010E456E56EF0FF04504C0
:101E9A00D8A452EF0FF054EF0FF056EF0FF0020EE6
:101EAA00456E0150765F000E775B20EE01F07851A7
:101EBA00D9267951DA2201C0DFFF380E346E040EBA
:101ECA00356E75B16BEF0FF06DEF0FF0AFEF0FF0EE
:101EDA008AEF0FF072C0F6FF73C0F7FFF86A34C0DA
:101EEA00D9FF35C0DAFF070EF76403D00800F550B2
:101EFA0005D0F6CFE1FFF7CFE2FFE750DF6E000132
:101F0A00724B732B344A352A01060150D8A490EF3C
:101F1A000FF092EF0FF06FEF0FF0B7EF0FF072C004
:101F2A00F6FF73C0F7FFF86A34C0D9FF35C0DAFF8D
:101F3A00070EF76403D00800F55005D0F6CFE1FF8D
:101F4A00F7CFE2FFE750DF6E0001724B732B344A82
:101F5A00352A01060150D8A4B5EF0FF0B7EF0FF0FC
:101F6A0094EF0FF01200000E0401386F000E396F63
:101F7A0015EF10F00001758F4304D8A4C7EF0FF0D6
:101F8A00C9EF0FF02FEF10F0040138832FEF10F094
:101F9A000001758F2FEF10F00001758F040134BF17
:101FAA00D9EF0FF0DBEF0FF0ECEF0FF034510F0B1E
:101FBA00016E0150020D7E0EF324D96E000EF4203C
:101FCA00DA6EDECF03F0DDCF04F0FBEF0FF0345111
:101FDA000F0B016E0150020D780EF324D96E000E1C
:101FEA00F420DA6EDECF03F0DDCF04F003C0D9FFB0
:101FFA0004C0DAFFDFAE04EF10F006EF10F02FEFA7
:10200A0010F003C0D9FF04C0DAFFDFA40FEF10F00D
:10201A0011EF10F02FEF10F0010E386F2FEF10F0C4
:10202A0030511F0B016E026A0250000AD8B420EF29
:10203A0010F02FEF10F00150000AD8B4BFEF0FF0E4
:10204A00010AD8B4CDEF0FF0030AD8B4D1EF0FF0DC
:10205A002FEF10F0000175AF35EF10F037EF10F0E9
:10206A003EEF10F0380E726F040E736F7581020E18
:10207A00766F1200040130511F0BE806D8B448EFFE
:10208A0010F04AEF10F04CEF10F0C4EF10F03039B6
:10209A00E832030BE806D8B455EF10F057EF10F00A
:1020AA0059EF10F0C4EF10F03451D8B45FEF10F0CC
:1020BA0061EF10F0A3EF10F03405D8B467EF10F019
:1020CA0069EF10F0A3EF10F0C4EF10F0A20E0001B8
:1020DA00726F000E736F000E776F080E766F758140
:1020EA00758FC4EF10F0A20E0001726F000E736FAD
:1020FA00758FC4EF10F036C46EF037C46FF0470E18
:10210A0000016A6F000E6B6F000E706F000E716F28
:10211A006D8FC4EF10F0470E0001726F000E736FDF
:10212A00000E776F070E766FC10E756FC4EF10F051
:10213A0032C43AF00001758FC4EF10F03151016ECC
:10214A00026A0250000AD8B4ADEF10F0C4EF10F0E2
:10215A000150000AD8B46BEF10F0010AD8B478EF36
:10216A0010F0210AD8B480EF10F0010AD8B490EF29
:10217A0010F0030AD8B49DEF10F0C4EF10F012006B
:10218A0078C0D9FF79C0DAFF0001000EDFBC010E6A
:10219A00026E040E7819786F7951796F080E461815
:1021AA00D8A4DAEF10F0DCEF10F0EEEF10F0040133
:1021BA0032517F0B636E6350D8B4E6EF10F0E8EF4C
:1021CA0010F0ECEF10F0100E466EEEEF10F0040E69
:1021DA00466E4404D8A4F4EF10F0F6EF10F03EEF88
:1021EA0011F0000120EE02F07851D9267951DA2255
:1021FA00380EDE6E040EDD6E30EC0FF0020E45185E
:10220A00D8A40AEF11F00CEF11F01AEF11F078C010
:10221A00D9FF79C0DAFF040EDF6E78C0D9FF79C022
:10222A00DAFF000EDB8E49EF11F00250D8A420EF3E
:10223A0011F022EF11F030EF11F078C0D9FF79C018
:10224A00DAFF480EDF6E78C0D9FF79C0DAFF000ED8
:10225A00DB8E49EF11F078C0D9FF79C0DAFF080E9A
:10226A00DF6E78C0D9FF79C0DAFF000EDB8E49EF46
:10227A0011F000016DAF44EF11F046EF11F047EF96
:10228A0011F06D9F000E446E12003E50D8A450EF1C
:10229A0011F052EF11F0C2EF11F0010E3E6E3D50F7
:1022AA00D8A45AEF11F05CEF11F0C2EF11F0010E51
:1022BA003D6E020E4418D8A465EF11F067EF11F0D5
:1022CA007EEF11F0000120EE01F07851D926795104
:1022DA00DA22000EDF6E78C0D9FF79C0DAFF480E25
:1022EA00DF6E78C0D9FF79C0DAFF000EDB8EC2EF4D
:1022FA0011F04404D8A484EF11F086EF11F0C2EF74
:10230A0011F0000E416E20EE01F03850D9263950F6
:10231A00DA22080EDF6E20EE02F03850D926395044
:10232A00DA22300EDE6E040EDD6E38C0D9FF39C0F7
:10233A00DAFF040EDF6E38C0D9FF39C0DAFF000EAB
:10234A00DB8E010E416E20EE01F03650D926375051
:10235A00DA22080EDF6E20EE02F03650D926375008
:10236A00DA22300EDE6E040EDD6E36C0D9FF37C0BB
:10237A00DAFF800EDF6EC2EF11F012000001758FD6
:10238A006B0E016E0F0E026E000E046E000E036ECF
:10239A00000E066E020E056EA8EC08F0000E016E25
:1023AA00040E026E000E046E000E036E000E066E20
:1023BA00300E056EA8EC08F0608C000E156E8D0EBE
:1023CA001524D96EDA6A000EDA22000EDF6E8A0E42
:1023DA001524D96EDA6A000EDA22000EDF6E152A8B
:1023EA00020E1564FBEF11F0FDEF11F0E4EF11F0AE
:1023FA004E0E016E000E026E000E046E000E036E8B
:10240A00000E066E020E056EA8EC08F0609C080E1F
:10241A000001786F040E796F000E386E040E396E63
:10242A0038C036F039C037F032C451F05150D8A410
:10243A0021EF12F023EF12F027EF12F0100E466E82
:10244A0037EF12F0000E0E6E010E0D6E510E0F6E6A
:10245A00000E106E000E126E010E116E07EC15F0D2
:10246A00200E466E12000001AC51AD11D8B440EFF7
:10247A0012F042EF12F04BEF12F0AC51AD11D8A4AA
:10248A0049EF12F04BEF12F050EF12F0AA5128EC7C
:10249A0018F09DEF12F020EE04F0AC51D926AD51A0
:1024AA00DA22DE50DE10D8B45DEF12F05FEF12F0E0
:1024BA007AEF12F020EE04F0AC51D926AD51DA22AF
:1024CA0010EE02F0AC51E126AD51E222DE50E65C9C
:1024DA00E650800AB26FDE50800AB259D8B078EF5F
:1024EA0012F07AEF12F09DEF12F020EE02F0AC51EA
:1024FA00D926AD51DA22DECFAEF0DDCFAFF0ACC0D7
:10250A00D9FFADC0DAFFDECFB0F0DDCFB1F0AE510A
:10251A00B025D96EAF51B121DA6EAAC0DFFF20EE25
:10252A0002F0AC51D926AD51DA22DE2A000EDD22A4
:10253A001200000196A1A4EF12F0A6EF12F0B0EF7C
:10254A0012F0BCC0B3F0BDC0B4F0BAC0B5F0BBC0A5
:10255A00B6F01AEC17F00001BFBFB6EF12F0B8EFF1
:10256A0012F0BEEF12F0BEC0C3F0BFC0C4F0C2EF9B
:10257A0012F0000EC46F000EC36F000EC26F000E81
:10258A00C16FD5EF12F0000EAB6F200EAA6FBAC062
:10259A00ACF0BBC0ADF038EC12F00001C14BC22B5D
:1025AA00C351C15DC251800AC06FC451800AC0596B
:1025BA00D8A0E2EF12F0E4EF12F0C8EF12F096B1F1
:1025CA00E9EF12F0EBEF12F0F5EF12F0BCC0B3F046
:1025DA00BDC0B4F0BAC0B5F0BBC0B6F01AEC17F083
:1025EA00BCC0AAF0BDC0ABF09FEC17F00001C3510C
:1025FA00AA25BA6FC451AB21BB6F1200000E0001AD
:10260A009E6F9A519B11D8B40DEF13F00FEF13F090
:10261A001AEF13F09AC0D9FF9BC0DAFFDFBE18EF9A
:10262A0013F01AEF13F05CEF13F020EE01F09A5159
:10263A00D9269B51DA22B751DE5CD8B027EF13F0C6
:10264A0029EF13F031EF13F020EE01F09A51D92659
:10265A009B51DA22DF50B76F000E9E6F44EF13F0E2
:10266A00400E9E25D96EDA6A050EDA229E51B525EC
:10267A00E16E000EB621E26EDFCFE7FF9E2BB75167
:10268A009E5DD8A04BEF13F04DEF13F035EF13F02A
:10269A00000EAA6F400EAB6F050EAC6F400EAD6F09
:1026AA00020EBCEC0CF0AAC09AF0ABC09BF0000181
:1026BA009E5112002D0E406E50C01EF0FD0E1E16C9
:1026CA00D8A46AEF13F06CEF13F0AEEF13F050C01A
:1026DA001EF0D8901E323F0E1E161E50040D000E1C
:1026EA00F324386E040EF420396E38C036F039C03F
:1026FA0037F0040E3618366E3750376E38C0D9FFA9
:10270A0039C0DAFFDF30E8320F0B0D0AD8A490EF98
:10271A0013F092EF13F0AAEF13F0300E016E040ECD
:10272A00026E20EE02F03850D9263950DA22DECF76
:10273A0003F0DDCF04F0000E066E080E056EA8EC5D
:10274A0016F0BFEC14F0BAEF13F04BEC15F0BAEF39
:10275A0013F05050FD0B040AD8A4B6EF13F0B8EFEB
:10276A0013F0BAEF13F0C5EC10F01200000E3C6E35
:10277A00000E3B6E020E4418D8A4C6EF13F0C8EF41
:10278A0013F0E8EF13F020EE01F03650D926375057
:10279A00DA22080EDF6E20EE02F03650D9263750C4
:1027AA00DA22380EDE6E040EDD6E36C0D9FF37C06F
:1027BA00DAFF480EDF6E36C0D9FF37C0DAFF000EE7
:1027CA00DB8E14EF14F0000176510401365D00012E
:1027DA00775104013759D8B0F5EF13F0F7EF13F03A
:1027EA00FBEF13F036C476F037C477F030EC0FF015
:1027FA00000120EE02F07851D9267951DA22380EFA
:10280A00DE6E040EDD6E78C0D9FF79C0DAFF480E9D
:10281A00DF6E78C0D9FF79C0DAFF000EDB8E1200B6
:10282A00066E000E076E040E086E0150026E036AF1
:10283A00D890023603360650046E056AD8900436DC
:10284A000536D89004360536025004260350052270
:10285A00D89004360536D890043605360450072633
:10286A000550082207C0D9FF08C0DAFFDF9E0150D1
:10287A00D8A442EF14F044EF14F052EF14F00650CB
:10288A00020D7E0EF324D96E000EF420DA6E07C014
:10289A00DEFF08C0DDFF5EEF14F00650020D780E71
:1028AA00F324D96E000EF420DA6E07C0DEFF08C0EA
:1028BA00DDFF07C0D9FF08C0DAFFDF9C20EE04F075
:1028CA000750D9260850DA22DF8C12001F0E466400
:1028DA0071EF14F073EF14F0BEEF14F060A278EF0A
:1028EA0014F07AEF14F07CEF14F0BEEF14F0400EFF
:1028FA000001B56F010EB66F400EB76F03EC13F00F
:10290A000001EF6F9F51D8A48DEF14F08FEF14F0F0
:10291A00BCEF14F0EF51D8B495EF14F097EF14F020
:10292A00B0EF14F0000EDB6F010EDC6FAE0EDD6F40
:10293A00080EDE6F000EE06F160EDF6F000EE26FFC
:10294A00300EE16F7FEC16F0000E0001AA6F010E47
:10295A00AB6F85EC15F0020E0001EE6F380EED6FCD
:10296A00AD0EE82EFED7ED2FFCD7EE2FFAD71FECCF
:10297A0007F01200000E456E000E3F6E000E3C6E10
:10298A00000E3B6E000E416E000E446E78C0D9FFF9
:10299A0079C0DAFF7F0EDF16040E00017819786F0E
:1029AA007951796F78C0D9FF79C0DAFF7F0EDF16C7
:1029BA00040E7819786F7951796F36C0D9FF37C00C
:1029CA00DAFF7F0EDF16000E756F000E776F000EAE
:1029DA00766F000E6D6F000E6F6F000E6E6F9DECBE
:1029EA000EF0000E0E6E030E0D6E000E0F6E000E30
:1029FA00106E000E126E000E116E07EC15F05DECF3
:102A0A000DF0120011EF15F0BDEC15F04AEF15F0BC
:102A1A003FEC10F04AEF15F00DC013F00EC014F0A1
:102A2A001450000AD8B420EF15F07F0AD8B443EF47
:102A3A0015F04AEF15F01350010AD8B409EF15F052
:102A4A00030AD8B44AEF15F0010AD8B40DEF15F00D
:102A5A00060AD8B44AEF15F0770AD8B44AEF15F047
:102A6A00010AD8B44AEF15F0070AD8B44AEF15F0AC
:102A7A00010AD8B44AEF15F04AEF15F01350FF0ACD
:102A8A00D8B44AEF15F04AEF15F01200020E4418B6
:102A9A00D8A452EF15F054EF15F058EF15F01AECD0
:102AAA000CF084EF15F0000E446E4150D8A460EF8C
:102ABA0015F062EF15F082EF15F020EE01F03650B6
:102ACA00D9263750DA22080EDF6E20EE02F0365091
:102ADA00D9263750DA22300EDE6E040EDD6E36C08D
:102AEA00D9FF37C0DAFF0C0EDF6E36C0D9FF37C008
:102AFA00DAFF000EDB8E84EF15F0000E416E120035
:102B0A00A39400019F51D8B48DEF15F08FEF15F003
:102B1A0092EF15F0A384BCEF15F0000EAE6FAAC0B9
:102B2A00ACF0ABC0ADF0AE2BAE29D8A49FEF15F038
:102B3A00A1EF15F0A3EF15F0B1EF15F0ACC0D9FF76
:102B4A00ADC0DAFFAC4BAD2BDF50D8A4AFEF15F018
:102B5A00B1EF15F098EF15F0AAC087F0ABC088F076
:102B6A00AEC09DF0000E9C6F010E9F6FA3841200F1
:102B7A00000E476E4B0E486E000E496E000E4A6EEE
:102B8A00000E4B6E000E4C6E080E4D6E000E0001CC
:102B9A009E6F1A0E096E010ED0EC16F01E0E096E0B
:102BAA00020ED0EC16F0000E016E400E026E050EFB
:102BBA00036E400E046E020EFEEC0DF001C09AF098
:102BCA0002C09BF0000E0001986F000E996F000E74
:102BDA009F6F1200D5C0D9F0D6C0DAF0000E0001FE
:102BEA00916F000E906F0DEF16F0D3C0CAF0D4C0EB
:102BFA00CBF0D90ECC6F000ECD6FD7C0CEF0D8C0B7
:102C0A00CFF01DEC0AF00001CA519027CB51912355
:102C1A00D9C0F6FFDAC0F7FF0800F5500009D8A4BA
:102C2A0019EF16F01BEF16F0FAEF15F090C0D3F07B
:102C3A0091C0D4F012006AA025EF16F027EF16F023
:102C4A004EEF16F038C0D9FF39C0DAFF800EDE1811
:102C5A00D8A432EF16F034EF16F04DEF16F078C024
:102C6A00D9FF79C0DAFF840EDE18D8A43FEF16F038
:102C7A0041EF16F04DEF16F038C0D9FF39C0DAFF30
:102C8A000C0EDF6E38C0D9FF39C0DAFF000EDB8EBA
:102C9A006A90659A1200000192519311D8A458EFD4
:102CAA0016F05AEF16F060EF16F092C0C8F093C013
:102CBA00C9F066EF16F0FF0E9225C86FFF0E93213A
:102CCA00C96FC7C080F1000E0101816FC5C0BAF09B
:102CDA00C6C0BBF0800E0001BC6F010EBD6FC8C03C
:102CEA00BEF0C9C0BFF09EEC12F0BAC0C5F0BBC0BE
:102CFA00C6F01200DF0E0001E56F000EE66FDBC0C2
:102D0A00E7F0DCC0E8F0000EEA6F000EE96F000E93
:102D1A00EC6F000EEB6FE70ED36F000ED46FDDC0C1
:102D2A00D5F0DEC0D6F0E50ED76F000ED86FEFEC07
:102D3A0015F00001E951DB25D96EEA51DC21DA6E82
:102D4A00000EDF6E120003C009F004C00AF001C0D1
:102D5A0007F002C008F0C2EF16F009C0D9FF0AC096
:102D6A00DAFFDF500B6E094A0A2A07C0D9FF08C0EA
:102D7A00DAFF0BC0DFFF074A082A0506D8A00606B5
:102D8A00052806E10628D8A4CDEF16F0CFEF16F0F5
:102D9A00B2EF16F012000C6E09A4D6EF16F0D8EFB7
:102DAA0016F0DDEF16F0000E016E0C5015EC14F063
:102DBA0009A2E2EF16F0E4EF16F0E9EF16F0010EC1
:102DCA00016E0C5015EC14F06A0E0C240A6E0B6A94
:102DDA000F0E0B220AC0D9FF0BC0DAFF09C0DFFFB2
:102DEA00120016EC18F0060ED56EE50ED66E480ED9
:102DFA00D76ED58EF2946BEC14F0F2A407EF17F0AD
:102E0A0009EF17F000EF17F08BA00EEF17F011EF94
:102E1A0017F08B8012EF17F08B90E50ED66E480EE6
:102E2A00D76EFFEF16F040EF00F0000E0001B96F09
:102E3A00000EB86F2DEF17F0B7C0AAF0AB6BB5C094
:102E4A00ACF0B6C0ADF038EC12F00001B84BB92BBB
:102E5A00B851B325D96EB951B421DA6EDF50B76FC4
:102E6A00B751D8A43BEF17F03DEF17F021EF17F059
:102E7A0012004650D8A444EF17F046EF17F05EEF61
:102E8A0017F0000E606E000E646E160E626E9F0ED4
:102E9A00666E7B0E646EA584A38455EF17F0608678
:102EAA0060A65AEF17F05CEF17F054EF17F0010E17
:102EBA00466E1200000E0001A16F000E0E6E740E17
:102ECA000D6E000E0F6E000E106E000E126E000ECA
:102EDA00116E07EC15F06092649475EF17F0659423
:102EEA0065B47AEF17F07CEF17F074EF17F0000E65
:102EFA000001A06F1200000E8D6E000E8C6E000E87
:102F0A00896E000E8A6E000E8B6E070E966E9268A0
:102F1A009368C00E946E95680F015E69C40E5D6F6A
:102F2A003F0E5C6F070E5F6F2F0E5B6F000E856E94
:102F3A00F18E1200AAC0ACF0ABC0ADF0A8EF17F04A
:102F4A000001AA4BAB2BAAC0D9FFABC0DAFFDF50F6
:102F5A00D8A4B2EF17F0B4EF17F0A5EF17F00001FD
:102F6A00AC51AA5DAA6FAD51AB59AB6F1200010EFD
:102F7A002E26000E2F22302231220001A151D8A480
:102F8A00C9EF17F0CBEF17F0D5EF17F0A02BA05130
:102F9A00D8A4D2EF17F0D4EF17F0D5EF17F0A06945
:102FAA00120001EE00F0A00EEE6AE806FDE100EE66
:102FBA0060F04A0EEE6AE806FDE100EE2AF0280EFD
:102FCA00EE6AE806FDE152905292000EF86E000198
:102FDA00F6EF16F0648465986082010E0001A16F15
:102FEA00000EA06F000E0E6E750E0D6E000E0F6EA7
:102FFA00000E106E000E126E000E116E07EC15F028
:10300A001200700ED36E100ED26E800E9B6E100ED2
:10301A00B56ED2AE13EF18F015EF18F00EEF18F0E8
:10302A00120021EC18F080EC17F006EC18F0CEEC48
:10303A000AF03EEC17F01200A384D08EA584F28C1D
:08304A00D08EF28E120012007C
:020000040020DA
:08000000FFFFFFFFFFFFFFFF00
:020000040030CA
:0E00000021285F3CFFD181FF0FC00FE00F40B1
:00000001FF
